{
  "address": "0xa5909f1D8ACA88281f4D57C5acf0371eCE2a52c3",
  "abi": [
    {
      "inputs": [
        {
          "internalType": "contract ISMT",
          "name": "_smtContract",
          "type": "address"
        }
      ],
      "stateMutability": "nonpayable",
      "type": "constructor"
    },
    {
      "anonymous": false,
      "inputs": [
        {
          "indexed": false,
          "internalType": "address",
          "name": "brevisRequest",
          "type": "address"
        }
      ],
      "name": "BrevisRequestUpdated",
      "type": "event"
    },
    {
      "anonymous": false,
      "inputs": [
        {
          "indexed": true,
          "internalType": "address",
          "name": "previousOwner",
          "type": "address"
        },
        {
          "indexed": true,
          "internalType": "address",
          "name": "newOwner",
          "type": "address"
        }
      ],
      "name": "OwnershipTransferred",
      "type": "event"
    },
    {
      "anonymous": false,
      "inputs": [
        {
          "indexed": false,
          "internalType": "contract ISMT",
          "name": "smtContract",
          "type": "address"
        }
      ],
      "name": "SmtContractUpdated",
      "type": "event"
    },
    {
      "anonymous": false,
      "inputs": [
        {
          "indexed": false,
          "internalType": "uint64[]",
          "name": "chainIds",
          "type": "uint64[]"
        },
        {
          "indexed": false,
          "internalType": "contract IZkpVerifier[]",
          "name": "newAddresses",
          "type": "address[]"
        }
      ],
      "name": "VerifierAddressesUpdated",
      "type": "event"
    },
    {
      "inputs": [],
      "name": "brevisRequest",
      "outputs": [
        {
          "internalType": "address",
          "name": "",
          "type": "address"
        }
      ],
      "stateMutability": "view",
      "type": "function"
    },
    {
      "inputs": [
        {
          "internalType": "bytes32",
          "name": "_requestId",
          "type": "bytes32"
        }
      ],
      "name": "getProofAppData",
      "outputs": [
        {
          "internalType": "bytes32",
          "name": "",
          "type": "bytes32"
        },
        {
          "internalType": "bytes32",
          "name": "",
          "type": "bytes32"
        }
      ],
      "stateMutability": "view",
      "type": "function"
    },
    {
      "inputs": [
        {
          "internalType": "bytes32",
          "name": "_requestId",
          "type": "bytes32"
        }
      ],
      "name": "hasProof",
      "outputs": [
        {
          "internalType": "bool",
          "name": "",
          "type": "bool"
        }
      ],
      "stateMutability": "view",
      "type": "function"
    },
    {
      "inputs": [
        {
          "internalType": "contract ISMT",
          "name": "_smtContract",
          "type": "address"
        }
      ],
      "name": "init",
      "outputs": [],
      "stateMutability": "nonpayable",
      "type": "function"
    },
    {
      "inputs": [],
      "name": "owner",
      "outputs": [
        {
          "internalType": "address",
          "name": "",
          "type": "address"
        }
      ],
      "stateMutability": "view",
      "type": "function"
    },
    {
      "inputs": [
        {
          "internalType": "bytes32",
          "name": "",
          "type": "bytes32"
        }
      ],
      "name": "proofs",
      "outputs": [
        {
          "internalType": "bytes32",
          "name": "commitHash",
          "type": "bytes32"
        },
        {
          "internalType": "bytes32",
          "name": "appCommitHash",
          "type": "bytes32"
        },
        {
          "internalType": "bytes32",
          "name": "appVkHash",
          "type": "bytes32"
        },
        {
          "internalType": "bytes32",
          "name": "smtRoot",
          "type": "bytes32"
        }
      ],
      "stateMutability": "view",
      "type": "function"
    },
    {
      "inputs": [],
      "name": "smtContract",
      "outputs": [
        {
          "internalType": "contract ISMT",
          "name": "",
          "type": "address"
        }
      ],
      "stateMutability": "view",
      "type": "function"
    },
    {
      "inputs": [
        {
          "internalType": "bytes32",
          "name": "_requestId",
          "type": "bytes32"
        }
      ],
      "name": "submitOpResult",
      "outputs": [],
      "stateMutability": "nonpayable",
      "type": "function"
    },
    {
      "inputs": [
        {
          "internalType": "uint64",
          "name": "_chainId",
          "type": "uint64"
        },
        {
          "internalType": "bytes",
          "name": "_proofWithPubInputs",
          "type": "bytes"
        }
      ],
      "name": "submitProof",
      "outputs": [
        {
          "internalType": "bytes32",
          "name": "_requestId",
          "type": "bytes32"
        }
      ],
      "stateMutability": "nonpayable",
      "type": "function"
    },
    {
      "inputs": [
        {
          "internalType": "address",
          "name": "newOwner",
          "type": "address"
        }
      ],
      "name": "transferOwnership",
      "outputs": [],
      "stateMutability": "nonpayable",
      "type": "function"
    },
    {
      "inputs": [
        {
          "internalType": "address",
          "name": "_brevisRequest",
          "type": "address"
        }
      ],
      "name": "updateBrevisRequest",
      "outputs": [],
      "stateMutability": "nonpayable",
      "type": "function"
    },
    {
      "inputs": [
        {
          "internalType": "contract ISMT",
          "name": "_smtContract",
          "type": "address"
        }
      ],
      "name": "updateSmtContract",
      "outputs": [],
      "stateMutability": "nonpayable",
      "type": "function"
    },
    {
      "inputs": [
        {
          "internalType": "uint64[]",
          "name": "_chainIds",
          "type": "uint64[]"
        },
        {
          "internalType": "contract IZkpVerifier[]",
          "name": "_verifierAddresses",
          "type": "address[]"
        }
      ],
      "name": "updateVerifierAddress",
      "outputs": [],
      "stateMutability": "nonpayable",
      "type": "function"
    },
    {
      "inputs": [
        {
          "internalType": "bytes32",
          "name": "_requestId",
          "type": "bytes32"
        },
        {
          "internalType": "uint64",
          "name": "_chainId",
          "type": "uint64"
        },
        {
          "components": [
            {
              "components": [
                {
                  "internalType": "uint64",
                  "name": "blkNum",
                  "type": "uint64"
                },
                {
                  "internalType": "uint64",
                  "name": "receiptIndex",
                  "type": "uint64"
                },
                {
                  "components": [
                    {
                      "internalType": "uint64",
                      "name": "logIndex",
                      "type": "uint64"
                    },
                    {
                      "internalType": "bytes32",
                      "name": "value",
                      "type": "bytes32"
                    },
                    {
                      "internalType": "bool",
                      "name": "valueFromTopic",
                      "type": "bool"
                    },
                    {
                      "internalType": "uint64",
                      "name": "valueIndex",
                      "type": "uint64"
                    },
                    {
                      "internalType": "address",
                      "name": "contractAddress",
                      "type": "address"
                    },
                    {
                      "internalType": "bytes32",
                      "name": "logTopic0",
                      "type": "bytes32"
                    }
                  ],
                  "internalType": "struct Brevis.LogInfo[]",
                  "name": "logs",
                  "type": "tuple[]"
                }
              ],
              "internalType": "struct Brevis.ReceiptInfo[]",
              "name": "receipts",
              "type": "tuple[]"
            },
            {
              "components": [
                {
                  "internalType": "bytes32",
                  "name": "blockHash",
                  "type": "bytes32"
                },
                {
                  "internalType": "address",
                  "name": "account",
                  "type": "address"
                },
                {
                  "internalType": "bytes32",
                  "name": "slot",
                  "type": "bytes32"
                },
                {
                  "internalType": "bytes32",
                  "name": "slotValue",
                  "type": "bytes32"
                },
                {
                  "internalType": "uint64",
                  "name": "blockNumber",
                  "type": "uint64"
                }
              ],
              "internalType": "struct Brevis.StorageInfo[]",
              "name": "stores",
              "type": "tuple[]"
            },
            {
              "components": [
                {
                  "internalType": "bytes32",
                  "name": "txHash",
                  "type": "bytes32"
                },
                {
                  "internalType": "bytes32",
                  "name": "hashOfRawTxData",
                  "type": "bytes32"
                },
                {
                  "internalType": "bytes32",
                  "name": "blockHash",
                  "type": "bytes32"
                },
                {
                  "internalType": "uint64",
                  "name": "blockNumber",
                  "type": "uint64"
                }
              ],
              "internalType": "struct Brevis.TransactionInfo[]",
              "name": "txs",
              "type": "tuple[]"
            }
          ],
          "internalType": "struct Brevis.ExtractInfos",
          "name": "_info",
          "type": "tuple"
        }
      ],
      "name": "validateOpRequest",
      "outputs": [],
      "stateMutability": "view",
      "type": "function"
    },
    {
      "inputs": [
        {
          "internalType": "uint64",
          "name": "",
          "type": "uint64"
        }
      ],
      "name": "verifierAddresses",
      "outputs": [
        {
          "internalType": "contract IZkpVerifier",
          "name": "",
          "type": "address"
        }
      ],
      "stateMutability": "view",
      "type": "function"
    }
  ],
  "transactionHash": "0xf83c743ff6eda942cbee19a949fc1f0ed52ed1c233eb01bb524cf80d8c607ca2",
  "args": [
    "0x0000000000000000000000000000000000000000"
  ],
  "numDeployments": 1,
  "solcInputHash": "93d734d1b2691f874d5bd16cb4eb41d4",
  "bytecode": "0x6080346100a757601f61140f38819003918201601f19168301916001600160401b038311848410176100ac578084926020946040528339810103126100a757516001600160a01b0390818116908190036100a75760005460018060a01b0319903382821617600055604051933391167f8be0079c531659141344cd1fd0a4f28419497f9722a3daafe3b4186f6b6457e0600080a3600354161760035561134c90816100c38239f35b600080fd5b634e487b7160e01b600052604160045260246000fdfe608060405260048036101561001357600080fd5b600090813560e01c9081631396511e14610f1157816319ab453c14610e805781631acf1e1f14610e0e5781632792d466146107df5781633221aec6146107b857816338931a3114610792578163444d95b01461074557816350d41063146105675781635984fb92146105305781638da5cb5b1461050a578163e04409531461023e578163e26d07d314610204578163e3d1e6d6146101be578163f2fde38b1461010a575063f5cec6af146100c657600080fd5b34610107576020366003190112610107576001600160a01b03604060209267ffffffffffffffff6100f5610fa0565b16815260018452205416604051908152f35b80fd5b9050346101ba5760203660031901126101ba57610125610f85565b906001600160a01b0361013c818554163314611273565b821615610150575061014d906112ce565b80f35b60849060206040519162461bcd60e51b8352820152602660248201527f4f776e61626c653a206e6577206f776e657220697320746865207a65726f206160448201527f64647265737300000000000000000000000000000000000000000000000000006064820152fd5b5080fd5b9050346101ba5760203660031901126101ba576020916040913581526002835220805415908115916101f6575b506040519015158152f35b6001915001541515386101eb565b9050346101ba5760203660031901126101ba5761022e6001600160a01b0382359254163314610ffd565b8082526002602052604082205580f35b823461010757604036600319011261010757610258610fa0565b90602492833567ffffffffffffffff9182821161050657366023830112156105065781810135928084116105025736878585010111610502576001600160a01b03956102a8878454163314610ffd565b1680855260209660018852866040872054169182156104bf576040516322bb937360e11b815289858201528683820152898160449589868a01888401378a878b840101528187818c601f801991011681010301915afa9081156104b4578891610497575b5015610455576040519761031f89611049565b8989019560408a0197806101801161044d576101848201359a8b8152816101a011610451579082916101a46060959401359485910152806101e011610451576101e482013589526102001161044d578b9291610204879201358a526003541693604051948593849263080cdb0b60e11b84528a840152878301525afa908115610442578791610415575b50156103d35750505090604060029251938581528387522092600184015551910155604051908152f35b60405162461bcd60e51b81529283018890526012908301527f736d7420726f6f74206e6f742076616c6964000000000000000000000000000090820152606490fd5b6104359150893d8b1161043b575b61042d8183611097565b8101906110b9565b896103a9565b503d610423565b6040513d89823e3d90fd5b8980fd5b8a80fd5b60405162461bcd60e51b81528085018a9052600f818401527f70726f6f66206e6f742076616c6964000000000000000000000000000000000081850152606490fd5b6104ae91508a3d8c1161043b5761042d8183611097565b8a61030c565b6040513d8a823e3d90fd5b60405162461bcd60e51b81528085018a90526016818401527f636861696e207665726966696572206e6f7420736574000000000000000000006044820152606490fd5b8480fd5b8380fd5b82346101075780600319360112610107576001600160a01b036020915416604051908152f35b9050346101ba5760203660031901126101ba5760409182913581526002602052206002600182015491015482519182526020820152f35b82346101075760403660031901126101075767ffffffffffffffff8235818111610741576105989036908501610fcc565b9390602435838111610502576105b19036908401610fcc565b9290956001600160a01b03916105cb838854163314611273565b8482036106fd57509385939291935b85811061069a5750604051948060408701604088525260608601929187905b8282106106715750505050602081858293038287015283815201959285905b83821061064957867f10ec8ad6a03997446c98d9aabf3ad339cc9621ec7cd4b47b04fe1ba8f75b4223878a0388a180f35b9091929396873582811680910361066d578152830196830193929160010190610618565b8780fd5b9091929495936001908261068488610fb7565b16815294969560209586019501939201906105f9565b6106ac81858a989498979596976112be565b3583811680910361066d57906106f191876106d06106cb84878a6112be565b61123e565b168952600160205260408920906001600160a01b0319825416179055611196565b949094939291936105da565b60649060206040519162461bcd60e51b8352820152601060248201527f6c656e677468206e6f74206d61746368000000000000000000000000000000006044820152fd5b8280fd5b9050346101ba5760203660031901126101ba576080916040913581526002602052208054906001810154906003600282015491015491604051938452602084015260408301526060820152f35b823461010757806003193601126101075760206001600160a01b03835416604051908152f35b823461010757806003193601126101075760206001600160a01b0360035416604051908152f35b823461010757600319916060368401126101ba5760249081359267ffffffffffffffff84168403610107576044359467ffffffffffffffff86116101ba5760609086360301126101075781358152600260205260408120936040519461084486611049565b600381549182885260018101546020890152600281015460408901520154606087015215610dcb5760609460646108aa61089b610883878b01806110d1565b9050610893898c018c8a01611107565b91905061113d565b61089360448b018b8901611160565b11610d88579582915b6108bf858301806110d1565b9050831015610b2c57839060605b6108f06108e6866108e08a8801806110d1565b906111a5565b60408101906111dd565b9050831015610a955761090c6108e6866108e08a8801806110d1565b841015610a835760c08085028201360312610a7f576040518060c081011067ffffffffffffffff60c083011117610a6d5760c0810160405261095260c086028301610fb7565b91828252602060c087028201013592836020840152604060c08802830101359283151593848103610a69576040820152610993606060c08a02850101610fb7565b908160608201526080938460c08b0282010135946001600160a01b0386168603610a655794610a5f9894610a4b9894848d60c0958560209b610a599d99015260a096879202010135948591015260405194888601966001600160c01b0319809460c01b168852602887015260f81b604886015260c01b1660498401526bffffffffffffffffffffffff199060601b166051830152606590818301528152610a398161107b565b51902060405194859284840190611213565b908152038084520182611097565b92611196565b916108cd565b8d80fd5b8b80fd5b634e487b7160e01b8852604189528988fd5b8680fd5b634e487b7160e01b8752603288528887fd5b610b2392506020859985610b1d93610a39610add989e9885610ad7610a4b999c8f6108e090610acf6106cb846108e08c85018d86016110d1565b9801806110d1565b0161123e565b92610b0f604051938492888401966001600160c01b0319918260c091821b1689521b1660288401526030830190611213565b03601f198101835282611097565b96611196565b919690966108b3565b879591925083965b610b42838501858801611107565b9050881015610c3957610b6388610b5d858701878a01611107565b90611253565b356020610b788a610b5d878901898c01611107565b01356001600160a01b0381168103610a7f576020610c3393610a4b93610c2d936001600160c01b03198a8f610bea8f610ad7838f946080936040610bc7610b5d93610b5d8a8c018c8601611107565b0135976060610bde85610b5d8b8501858701611107565b01359781019101611107565b91604051948886019687526bffffffffffffffffffffffff199060601b1660408601526054850152607484015260c01b166094820152607c8152610a398161107b565b97611196565b96610b34565b858585948982945b610c5060448901898701611160565b9050861015610d0857610a4b610cfc6020610d029389896001600160c01b03198e610cd16060610ad7610c9287610c8c60448701878a01611160565b90611263565b3596610c8c8a610cab83610c8c60448a018a8d01611160565b0135976040610cc384610c8c60448b018b8601611160565b013596604481019101611160565b90604051938785019586526040850152606084015260c01b16608082015260688152610a398161107b565b95611196565b94610c41565b610b0f610d3788929695966040519283916001600160c01b0319602084019660c01b1686526028830190611213565b519020905103610d45578280f35b90601d60649260206040519362461bcd60e51b85528401528201527f636f6d6d69744861736820616e6420696e666f206e6f74206d617463680000006044820152fd5b60405162461bcd60e51b81526020818601526013818701527f65786365656473206d617820616c6c6f776564000000000000000000000000006044820152606490fd5b60405162461bcd60e51b81526020818501526010818601527f70726f6f66206e6f7420657869737473000000000000000000000000000000006044820152606490fd5b9050346101ba5760203660031901126101ba5760207ff98c05ab8c0aff645cf82c365a53f4ee82f61b1d94c4a71e867e0571b2ca920491610e4d610f85565b6001600160a01b0390610e64828754163314611273565b1690816001600160a01b0319825416179055604051908152a180f35b9050346101ba5760203660031901126101ba578035906001600160a01b0380831680930361050657835416610ecd5750610eb9336112ce565b6001600160a01b0319600354161760035580f35b60649060206040519162461bcd60e51b8352820152601160248201527f6f776e657220616c7265616479207365740000000000000000000000000000006044820152fd5b9050346101ba5760203660031901126101ba57356001600160a01b03808216809203610741577f674c535cde998bcb47d0688f644df545597c7d6edb95643cb21c82c2d490ff7f91610f696020928554163314611273565b806001600160a01b03196003541617600355604051908152a180f35b600435906001600160a01b0382168203610f9b57565b600080fd5b6004359067ffffffffffffffff82168203610f9b57565b359067ffffffffffffffff82168203610f9b57565b9181601f84011215610f9b5782359167ffffffffffffffff8311610f9b576020808501948460051b010111610f9b57565b1561100457565b60405162461bcd60e51b815260206004820152601160248201527f6e6f7420627265766973526571756573740000000000000000000000000000006044820152606490fd5b6080810190811067ffffffffffffffff82111761106557604052565b634e487b7160e01b600052604160045260246000fd5b60a0810190811067ffffffffffffffff82111761106557604052565b90601f8019910116810190811067ffffffffffffffff82111761106557604052565b90816020910312610f9b57518015158103610f9b5790565b903590601e1981360301821215610f9b570180359067ffffffffffffffff8211610f9b57602001918160051b36038313610f9b57565b903590601e1981360301821215610f9b570180359067ffffffffffffffff8211610f9b576020019160a0820236038313610f9b57565b9190820180921161114a57565b634e487b7160e01b600052601160045260246000fd5b903590601e1981360301821215610f9b570180359067ffffffffffffffff8211610f9b57602001918160071b36038313610f9b57565b600019811461114a5760010190565b91908110156111c75760051b81013590605e1981360301821215610f9b570190565b634e487b7160e01b600052603260045260246000fd5b903590601e1981360301821215610f9b570180359067ffffffffffffffff8211610f9b576020019160c0820236038313610f9b57565b9081519160005b83811061122b575050016000815290565b806020809284010151818501520161121a565b3567ffffffffffffffff81168103610f9b5790565b91908110156111c75760a0020190565b91908110156111c75760071b0190565b1561127a57565b606460405162461bcd60e51b815260206004820152602060248201527f4f776e61626c653a2063616c6c6572206973206e6f7420746865206f776e65726044820152fd5b91908110156111c75760051b0190565b600054906001600160a01b0380911691826001600160a01b0319821617600055167f8be0079c531659141344cd1fd0a4f28419497f9722a3daafe3b4186f6b6457e0600080a356fea26469706673582212200a7df880b0e3419248d6ea571f731fd0f7551335d6681eb80089ffa9eb4282da64736f6c63430008140033",
  "devdoc": {
    "kind": "dev",
    "methods": {
      "owner()": {
        "details": "Returns the address of the current owner."
      },
      "transferOwnership(address)": {
        "details": "Transfers ownership of the contract to a new account (`newOwner`). Can only be called by the current owner."
      }
    },
    "version": 1
  },
  "userdoc": {
    "kind": "user",
    "methods": {},
    "version": 1
  },
  "storageLayout": {
    "storage": [
      {
        "astId": 2630,
        "contract": "contracts/core/BrevisProof.sol:BrevisProof",
        "label": "_owner",
        "offset": 0,
        "slot": "0",
        "type": "t_address"
      },
      {
        "astId": 614,
        "contract": "contracts/core/BrevisProof.sol:BrevisProof",
        "label": "verifierAddresses",
        "offset": 0,
        "slot": "1",
        "type": "t_mapping(t_uint64,t_contract(IZkpVerifier)2074)"
      },
      {
        "astId": 619,
        "contract": "contracts/core/BrevisProof.sol:BrevisProof",
        "label": "proofs",
        "offset": 0,
        "slot": "2",
        "type": "t_mapping(t_bytes32,t_struct(ProofData)2234_storage)"
      },
      {
        "astId": 622,
        "contract": "contracts/core/BrevisProof.sol:BrevisProof",
        "label": "smtContract",
        "offset": 0,
        "slot": "3",
        "type": "t_contract(ISMT)2045"
      },
      {
        "astId": 624,
        "contract": "contracts/core/BrevisProof.sol:BrevisProof",
        "label": "brevisRequest",
        "offset": 0,
        "slot": "4",
        "type": "t_address"
      }
    ],
    "types": {
      "t_address": {
        "encoding": "inplace",
        "label": "address",
        "numberOfBytes": "20"
      },
      "t_bytes32": {
        "encoding": "inplace",
        "label": "bytes32",
        "numberOfBytes": "32"
      },
      "t_contract(ISMT)2045": {
        "encoding": "inplace",
        "label": "contract ISMT",
        "numberOfBytes": "20"
      },
      "t_contract(IZkpVerifier)2074": {
        "encoding": "inplace",
        "label": "contract IZkpVerifier",
        "numberOfBytes": "20"
      },
      "t_mapping(t_bytes32,t_struct(ProofData)2234_storage)": {
        "encoding": "mapping",
        "key": "t_bytes32",
        "label": "mapping(bytes32 => struct Brevis.ProofData)",
        "numberOfBytes": "32",
        "value": "t_struct(ProofData)2234_storage"
      },
      "t_mapping(t_uint64,t_contract(IZkpVerifier)2074)": {
        "encoding": "mapping",
        "key": "t_uint64",
        "label": "mapping(uint64 => contract IZkpVerifier)",
        "numberOfBytes": "32",
        "value": "t_contract(IZkpVerifier)2074"
      },
      "t_struct(ProofData)2234_storage": {
        "encoding": "inplace",
        "label": "struct Brevis.ProofData",
        "members": [
          {
            "astId": 2227,
            "contract": "contracts/core/BrevisProof.sol:BrevisProof",
            "label": "commitHash",
            "offset": 0,
            "slot": "0",
            "type": "t_bytes32"
          },
          {
            "astId": 2229,
            "contract": "contracts/core/BrevisProof.sol:BrevisProof",
            "label": "appCommitHash",
            "offset": 0,
            "slot": "1",
            "type": "t_bytes32"
          },
          {
            "astId": 2231,
            "contract": "contracts/core/BrevisProof.sol:BrevisProof",
            "label": "appVkHash",
            "offset": 0,
            "slot": "2",
            "type": "t_bytes32"
          },
          {
            "astId": 2233,
            "contract": "contracts/core/BrevisProof.sol:BrevisProof",
            "label": "smtRoot",
            "offset": 0,
            "slot": "3",
            "type": "t_bytes32"
          }
        ],
        "numberOfBytes": "128"
      },
      "t_uint64": {
        "encoding": "inplace",
        "label": "uint64",
        "numberOfBytes": "8"
      }
    }
  }
}