{
  "address": "0x36d4b89b679D4B5Dd79666002f54cFA3a5b3E571",
  "abi": [
    {
      "inputs": [
        {
          "internalType": "address",
          "name": "_feeCollector",
          "type": "address"
        },
        {
          "internalType": "contract IBrevisProof",
          "name": "_brevisProof",
          "type": "address"
        },
        {
          "internalType": "contract IBrevisEigen",
          "name": "_brevisEigen",
          "type": "address"
        }
      ],
      "stateMutability": "nonpayable",
      "type": "constructor"
    },
    {
      "anonymous": false,
      "inputs": [
        {
          "indexed": true,
          "internalType": "bytes32",
          "name": "requestId",
          "type": "bytes32"
        },
        {
          "indexed": false,
          "internalType": "enum BrevisRequest.AskForType",
          "name": "askFor",
          "type": "uint8"
        },
        {
          "indexed": false,
          "internalType": "address",
          "name": "from",
          "type": "address"
        }
      ],
      "name": "AskFor",
      "type": "event"
    },
    {
      "anonymous": false,
      "inputs": [
        {
          "indexed": false,
          "internalType": "uint256",
          "name": "from",
          "type": "uint256"
        },
        {
          "indexed": false,
          "internalType": "uint256",
          "name": "to",
          "type": "uint256"
        }
      ],
      "name": "ChallengeWindowUpdated",
      "type": "event"
    },
    {
      "anonymous": false,
      "inputs": [
        {
          "indexed": false,
          "internalType": "address",
          "name": "from",
          "type": "address"
        },
        {
          "indexed": false,
          "internalType": "address",
          "name": "to",
          "type": "address"
        }
      ],
      "name": "FeeCollectorUpdated",
      "type": "event"
    },
    {
      "anonymous": false,
      "inputs": [
        {
          "indexed": false,
          "internalType": "bytes32[]",
          "name": "requestIds",
          "type": "bytes32[]"
        },
        {
          "indexed": false,
          "internalType": "bytes[]",
          "name": "queryURLs",
          "type": "bytes[]"
        }
      ],
      "name": "OpRequestsFulfilled",
      "type": "event"
    },
    {
      "anonymous": false,
      "inputs": [
        {
          "indexed": true,
          "internalType": "address",
          "name": "previousOwner",
          "type": "address"
        },
        {
          "indexed": true,
          "internalType": "address",
          "name": "newOwner",
          "type": "address"
        }
      ],
      "name": "OwnershipTransferred",
      "type": "event"
    },
    {
      "anonymous": false,
      "inputs": [
        {
          "indexed": true,
          "internalType": "bytes32",
          "name": "requestId",
          "type": "bytes32"
        }
      ],
      "name": "ProofPost",
      "type": "event"
    },
    {
      "anonymous": false,
      "inputs": [
        {
          "indexed": true,
          "internalType": "bytes32",
          "name": "requestId",
          "type": "bytes32"
        }
      ],
      "name": "QueryDataPost",
      "type": "event"
    },
    {
      "anonymous": false,
      "inputs": [
        {
          "indexed": false,
          "internalType": "bytes32",
          "name": "requestId",
          "type": "bytes32"
        }
      ],
      "name": "RequestFulfilled",
      "type": "event"
    },
    {
      "anonymous": false,
      "inputs": [
        {
          "indexed": false,
          "internalType": "bytes32",
          "name": "requestId",
          "type": "bytes32"
        }
      ],
      "name": "RequestRefunded",
      "type": "event"
    },
    {
      "anonymous": false,
      "inputs": [
        {
          "indexed": false,
          "internalType": "bytes32",
          "name": "requestId",
          "type": "bytes32"
        },
        {
          "indexed": false,
          "internalType": "address",
          "name": "sender",
          "type": "address"
        },
        {
          "indexed": false,
          "internalType": "uint256",
          "name": "fee",
          "type": "uint256"
        },
        {
          "indexed": false,
          "internalType": "contract IBrevisApp",
          "name": "callback",
          "type": "address"
        },
        {
          "indexed": false,
          "internalType": "enum BrevisRequest.Option",
          "name": "option",
          "type": "uint8"
        }
      ],
      "name": "RequestSent",
      "type": "event"
    },
    {
      "anonymous": false,
      "inputs": [
        {
          "indexed": false,
          "internalType": "uint256",
          "name": "from",
          "type": "uint256"
        },
        {
          "indexed": false,
          "internalType": "uint256",
          "name": "to",
          "type": "uint256"
        }
      ],
      "name": "RequestTimeoutUpdated",
      "type": "event"
    },
    {
      "anonymous": false,
      "inputs": [
        {
          "indexed": false,
          "internalType": "uint256",
          "name": "from",
          "type": "uint256"
        },
        {
          "indexed": false,
          "internalType": "uint256",
          "name": "to",
          "type": "uint256"
        }
      ],
      "name": "ResponseTimeoutUpdated",
      "type": "event"
    },
    {
      "inputs": [
        {
          "internalType": "bytes32",
          "name": "",
          "type": "bytes32"
        }
      ],
      "name": "askForProof",
      "outputs": [],
      "stateMutability": "payable",
      "type": "function"
    },
    {
      "inputs": [
        {
          "internalType": "bytes32",
          "name": "",
          "type": "bytes32"
        }
      ],
      "name": "askForQueryData",
      "outputs": [],
      "stateMutability": "payable",
      "type": "function"
    },
    {
      "inputs": [],
      "name": "brevisEigen",
      "outputs": [
        {
          "internalType": "contract IBrevisEigen",
          "name": "",
          "type": "address"
        }
      ],
      "stateMutability": "view",
      "type": "function"
    },
    {
      "inputs": [],
      "name": "brevisProof",
      "outputs": [
        {
          "internalType": "contract IBrevisProof",
          "name": "",
          "type": "address"
        }
      ],
      "stateMutability": "view",
      "type": "function"
    },
    {
      "inputs": [
        {
          "internalType": "bytes",
          "name": "",
          "type": "bytes"
        }
      ],
      "name": "challengeQueryData",
      "outputs": [],
      "stateMutability": "pure",
      "type": "function"
    },
    {
      "inputs": [],
      "name": "challengeWindow",
      "outputs": [
        {
          "internalType": "uint256",
          "name": "",
          "type": "uint256"
        }
      ],
      "stateMutability": "view",
      "type": "function"
    },
    {
      "inputs": [
        {
          "internalType": "uint256",
          "name": "_amount",
          "type": "uint256"
        },
        {
          "internalType": "address",
          "name": "_to",
          "type": "address"
        }
      ],
      "name": "collectFee",
      "outputs": [],
      "stateMutability": "nonpayable",
      "type": "function"
    },
    {
      "inputs": [],
      "name": "feeCollector",
      "outputs": [
        {
          "internalType": "address",
          "name": "",
          "type": "address"
        }
      ],
      "stateMutability": "view",
      "type": "function"
    },
    {
      "inputs": [
        {
          "internalType": "bytes32[]",
          "name": "_requestIds",
          "type": "bytes32[]"
        },
        {
          "internalType": "bytes[]",
          "name": "_queryURLs",
          "type": "bytes[]"
        }
      ],
      "name": "fulfillOpRequests",
      "outputs": [],
      "stateMutability": "nonpayable",
      "type": "function"
    },
    {
      "inputs": [
        {
          "internalType": "bytes32",
          "name": "_requestId",
          "type": "bytes32"
        },
        {
          "internalType": "uint64",
          "name": "_chainId",
          "type": "uint64"
        },
        {
          "internalType": "bytes",
          "name": "_proof",
          "type": "bytes"
        },
        {
          "internalType": "bytes",
          "name": "_appCircuitOutput",
          "type": "bytes"
        }
      ],
      "name": "fulfillRequest",
      "outputs": [],
      "stateMutability": "nonpayable",
      "type": "function"
    },
    {
      "inputs": [
        {
          "internalType": "address",
          "name": "_feeCollector",
          "type": "address"
        },
        {
          "internalType": "contract IBrevisProof",
          "name": "_brevisProof",
          "type": "address"
        },
        {
          "internalType": "contract IBrevisEigen",
          "name": "_brevisEigen",
          "type": "address"
        }
      ],
      "name": "init",
      "outputs": [],
      "stateMutability": "nonpayable",
      "type": "function"
    },
    {
      "inputs": [
        {
          "internalType": "bytes32",
          "name": "",
          "type": "bytes32"
        }
      ],
      "name": "keccakToMimc",
      "outputs": [
        {
          "internalType": "bytes32",
          "name": "",
          "type": "bytes32"
        }
      ],
      "stateMutability": "view",
      "type": "function"
    },
    {
      "inputs": [],
      "name": "owner",
      "outputs": [
        {
          "internalType": "address",
          "name": "",
          "type": "address"
        }
      ],
      "stateMutability": "view",
      "type": "function"
    },
    {
      "inputs": [
        {
          "internalType": "bytes32",
          "name": "",
          "type": "bytes32"
        },
        {
          "internalType": "uint64",
          "name": "",
          "type": "uint64"
        },
        {
          "internalType": "bytes",
          "name": "",
          "type": "bytes"
        }
      ],
      "name": "postProof",
      "outputs": [],
      "stateMutability": "pure",
      "type": "function"
    },
    {
      "inputs": [
        {
          "internalType": "bytes32",
          "name": "",
          "type": "bytes32"
        },
        {
          "internalType": "bytes",
          "name": "",
          "type": "bytes"
        }
      ],
      "name": "postQueryData",
      "outputs": [],
      "stateMutability": "pure",
      "type": "function"
    },
    {
      "inputs": [
        {
          "internalType": "bytes32",
          "name": "_requestId",
          "type": "bytes32"
        }
      ],
      "name": "queryRequestStatus",
      "outputs": [
        {
          "internalType": "enum BrevisRequest.RequestStatus",
          "name": "",
          "type": "uint8"
        }
      ],
      "stateMutability": "view",
      "type": "function"
    },
    {
      "inputs": [
        {
          "internalType": "bytes32",
          "name": "_requestId",
          "type": "bytes32"
        }
      ],
      "name": "refund",
      "outputs": [],
      "stateMutability": "nonpayable",
      "type": "function"
    },
    {
      "inputs": [
        {
          "internalType": "bytes32",
          "name": "",
          "type": "bytes32"
        }
      ],
      "name": "requestExts",
      "outputs": [
        {
          "internalType": "uint256",
          "name": "canChallengeBefore",
          "type": "uint256"
        },
        {
          "internalType": "enum BrevisRequest.AskForType",
          "name": "askFor",
          "type": "uint8"
        },
        {
          "internalType": "uint256",
          "name": "shouldRespondBefore",
          "type": "uint256"
        }
      ],
      "stateMutability": "view",
      "type": "function"
    },
    {
      "inputs": [],
      "name": "requestTimeout",
      "outputs": [
        {
          "internalType": "uint256",
          "name": "",
          "type": "uint256"
        }
      ],
      "stateMutability": "view",
      "type": "function"
    },
    {
      "inputs": [
        {
          "internalType": "bytes32",
          "name": "",
          "type": "bytes32"
        }
      ],
      "name": "requests",
      "outputs": [
        {
          "internalType": "uint256",
          "name": "deadline",
          "type": "uint256"
        },
        {
          "internalType": "uint256",
          "name": "fee",
          "type": "uint256"
        },
        {
          "internalType": "address",
          "name": "refundee",
          "type": "address"
        },
        {
          "internalType": "contract IBrevisApp",
          "name": "callback",
          "type": "address"
        },
        {
          "internalType": "enum BrevisRequest.RequestStatus",
          "name": "status",
          "type": "uint8"
        },
        {
          "internalType": "enum BrevisRequest.Option",
          "name": "option",
          "type": "uint8"
        }
      ],
      "stateMutability": "view",
      "type": "function"
    },
    {
      "inputs": [],
      "name": "responseTimeout",
      "outputs": [
        {
          "internalType": "uint256",
          "name": "",
          "type": "uint256"
        }
      ],
      "stateMutability": "view",
      "type": "function"
    },
    {
      "inputs": [
        {
          "internalType": "bytes32",
          "name": "_requestId",
          "type": "bytes32"
        },
        {
          "internalType": "address",
          "name": "_refundee",
          "type": "address"
        },
        {
          "internalType": "contract IBrevisApp",
          "name": "_callback",
          "type": "address"
        },
        {
          "internalType": "enum BrevisRequest.Option",
          "name": "_option",
          "type": "uint8"
        }
      ],
      "name": "sendRequest",
      "outputs": [],
      "stateMutability": "payable",
      "type": "function"
    },
    {
      "inputs": [
        {
          "internalType": "contract IBrevisEigen",
          "name": "_brevisEigen",
          "type": "address"
        }
      ],
      "name": "setBrevisEigen",
      "outputs": [],
      "stateMutability": "nonpayable",
      "type": "function"
    },
    {
      "inputs": [
        {
          "internalType": "uint256",
          "name": "_challengeWindow",
          "type": "uint256"
        }
      ],
      "name": "setChallengeWindow",
      "outputs": [],
      "stateMutability": "nonpayable",
      "type": "function"
    },
    {
      "inputs": [
        {
          "internalType": "address",
          "name": "_feeCollector",
          "type": "address"
        }
      ],
      "name": "setFeeCollector",
      "outputs": [],
      "stateMutability": "nonpayable",
      "type": "function"
    },
    {
      "inputs": [
        {
          "internalType": "uint256",
          "name": "_timeout",
          "type": "uint256"
        }
      ],
      "name": "setRequestTimeout",
      "outputs": [],
      "stateMutability": "nonpayable",
      "type": "function"
    },
    {
      "inputs": [
        {
          "internalType": "uint256",
          "name": "_responseTimeout",
          "type": "uint256"
        }
      ],
      "name": "setResponseTimeout",
      "outputs": [],
      "stateMutability": "nonpayable",
      "type": "function"
    },
    {
      "inputs": [
        {
          "internalType": "address",
          "name": "newOwner",
          "type": "address"
        }
      ],
      "name": "transferOwnership",
      "outputs": [],
      "stateMutability": "nonpayable",
      "type": "function"
    },
    {
      "stateMutability": "payable",
      "type": "receive"
    }
  ],
  "transactionHash": "0xe51307107f92e60ed34b0046d351120d30679b302c4e060e335d0944af77e383",
  "args": [
    "0x58b529F9084D7eAA598EB3477Fe36064C5B7bbC1",
    "0x9E10764042A2168dE8B8Aab8E7862eF98E759F90",
    "0x9FC952BdCbB7Daca7d420fA55b942405B073A89d"
  ],
  "numDeployments": 1,
  "solcInputHash": "67a90a930df622f7b137271c06edbe3f",
  "bytecode": "0x6080346100db57601f6116f638819003918201601f19168301916001600160401b038311848410176100e0578084926060946040528339810103126100db5780516001600160a01b039190828116908190036100db576020820151918383168093036100db5760400151918383168093036100db576000549160018060a01b0319923384821617600055604051953391167f8be0079c531659141344cd1fd0a4f28419497f9722a3daafe3b4186f6b6457e0600080a382600154161760015581600354161760035560045416176004556115ff90816100f78239f35b600080fd5b634e487b7160e01b600052604160045260246000fdfe60806040818152600480361015610021575b505050361561001f57600080fd5b005b600092833560e01c908162a731ed146111155750806301c1aa0d146110b45780630de4c3d71461108d578063184b955914610fd55780632763ce8a14610fa45780632d85fa2014610f5f57806332e7ed8114610c4a5780633f20b4c914610c2b57806361b9fd7314610bf0578063622b6af414610b8f57806369c228a114610b5857806369dc190314610af75780636db03b1d146107705780637249fbb6146109845780637ff7b0d2146108f7578063861a1412146108d85780638da5cb5b146108b257806395d396561461088b5780639d8669851461080d578063a17ed96c146107ee578063a42dce8014610775578063a4514ff314610770578063b6979c3e1461073f578063c415b95c14610717578063c7f5aaa0146106ef578063da03667a14610480578063f2a9c6661461020e5763f2fde38b03610011573461020a57602036600319011261020a5761017661117f565b916001600160a01b0361018d818654163314611245565b8316156101a1578361019e84611581565b80f35b906020608492519162461bcd60e51b8352820152602660248201527f4f776e61626c653a206e6577206f776e657220697320746865207a65726f206160448201527f64647265737300000000000000000000000000000000000000000000000000006064820152fd5b8280fd5b509190608036600319011261047c5782359061022861119a565b90604435906001600160a01b03928383168093036104785760643593600385101561047457858752602091600583528388205461043157811680156103ee5761027360025442611290565b9084519160c0830183811067ffffffffffffffff8211176103d957899389938c96936003938a5282528782013481528983019182528960608401988c8a526080850198818a5260a08601986102c78161115f565b8952815260058b52209251835551600183015583600283019151166001600160a01b031982541617905501935116835492519160088310156103c6579174ff00000000000000000000000000000000000000007f8351e4cc62a96a972da26714bfbb019926334976bb613c36e0dc72b69cf8f5649a989694927fffffffffffffffffffff0000000000000000000000000000000000000000000075ff00000000000000000000000000000000000000000060a09c9a9896516103888161115f565b6103918161115f565b60a81b16941617918a1b161717905581519485523390850152349084015260608301526103bd8161115f565b6080820152a180f35b634e487b7160e01b8b5260218c5260248bfd5b60418c634e487b7160e01b6000525260246000fd5b835162461bcd60e51b8152808a01849052601560248201527f726566756e646565206e6f742070726f766964656400000000000000000000006044820152606490fd5b835162461bcd60e51b8152808a01849052601860248201527f7265717565737420616c726561647920696e20717565756500000000000000006044820152606490fd5b8680fd5b8580fd5b5080fd5b5082903461047c57608036600319011261047c57803561049e61120f565b9067ffffffffffffffff604435818111610478576104bf90369086016111b0565b9190946064358281116106a3576104d990369083016111b0565b9390956001600160a01b03938460035416918b51996371e8f36b60e11b8b5288868c015260209a8b81602481885afa9081156106e557926105558f95938f938f98969061052e9186916106b8575b5015611317565b86519889978896879563e044095360e01b8752168c86015260248501526044840191611363565b03925af19081156106ae57889161067d575b50840361063a5750958596838752600586526003828820017401000000000000000000000000000000000000000060ff60a01b198254161790557f85e1543bf2f84fe80c6badbce3648c8539ad1df4d2b3d822938ca0538be727e6868351868152a183875260058652600382882001541693846105e2578680f35b86956106136106219288958551958694850198633ceb5b5160e11b8a52602486015260448501526064840191611363565b03601f1981018352826112dd565b51925af15061062e611384565b50808280808080808680f35b875162461bcd60e51b8152908101869052601d60248201527f72657175657374496420616e642070726f6f66206e6f74206d617463680000006044820152606490fd5b90508681813d83116106a7575b61069481836112dd565b810103126106a3575189610567565b8780fd5b503d61068a565b89513d8a823e3d90fd5b6106d891508a3d8c116106de575b6106d081836112dd565b8101906112ff565b38610527565b503d6106c6565b8e513d8f823e3d90fd5b50503461047c578160031936011261047c576020906001600160a01b03600354169051908152f35b50503461047c578160031936011261047c576020906001600160a01b03600154169051908152f35b50913461076d57602036600319011261076d575061076b61076260209335611410565b91518092611238565bf35b80fd5b611226565b50503461047c57602036600319011261047c577f5d16ad41baeb009cd23eb8f6c7cde5c2e0cd5acf4a33926ab488875c37c37f38906107b261117f565b6001600160a01b036107c8818654163314611245565b80600154921690816001600160a01b03198416176001558351921682526020820152a180f35b50503461047c578160031936011261047c576020906009549051908152f35b503461020a57602036600319011261020a5760c092829135815260056020522061087b8154926001830154926001600160a01b03906003826002830154169101549260ff8460a81c1695815197885260208801528601528116606085015260ff608085019160a01c16611238565b6108848161115f565b60a0820152f35b503461020a57602036600319011261020a5760209282913581526007845220549051908152f35b50503461047c578160031936011261047c576001600160a01b0360209254169051908152f35b50503461047c578160031936011261047c576020906008549051908152f35b503461020a578160031936011261020a5761091061119a565b916001600160a01b03600154163303610941575082808061019e948194359061c350f161093b611384565b506113c4565b906020606492519162461bcd60e51b8352820152601160248201527f6e6f742066656520636f6c6c6563746f720000000000000000000000000000006044820152fd5b5082903461047c576020908160031936011261020a578035908184526005835284842054421115610af3576001600160a01b039060248483600354168851928380926371e8f36b60e11b825288878301525afa908115610ae957906109f0918791610acc575015611317565b828552600584528585205415610a89575093610a52848080808099877ffea410cb461deba9fe807dde02d6641d82e1bf09ecc88ecfa0f2ffadf2a1fdfe9a52600589526001878320918383556002830154169101549061c350f161093b611384565b818552600583526003818620017407000000000000000000000000000000000000000060ff60a01b1982541617905551908152a180f35b855162461bcd60e51b8152908101849052601460248201527f72657175657374206e6f7420696e2071756575650000000000000000000000006044820152606490fd5b610ae39150863d88116106de576106d081836112dd565b88610527565b87513d88823e3d90fd5b8380fd5b50903461020a57602036600319011261020a577f86fe7fc31f35681a1ed77325f0cf24935a5d25b1861e7ce9ceed9cb67f2222709135610b426001600160a01b038554163314611245565b600954908060095582519182526020820152a180f35b50903461020a5736600319011261047c5760243567ffffffffffffffff811161020a57610b8892503691016111b0565b505061153c565b50903461020a57602036600319011261020a577f87a73c061f18ffd513249d1d727921e40e348948b01e2979efb36ef4f5204a639135610bda6001600160a01b038554163314611245565b600254908060025582519182526020820152a180f35b83823461047c57606036600319011261047c57610c0b61120f565b5060443567ffffffffffffffff811161020a57610b8892503691016111b0565b50503461047c578160031936011261047c576020906002549051908152f35b503461020a578160031936011261020a5767ffffffffffffffff8135818111610f5b57610c7a90369084016111de565b909260249384358481116106a357610c9590369084016111de565b9390958115610f1957848203610f15576001600160a01b038085541694853b15610f1157895163d1e3471560e01b81528b816020988985830152818381610ce08c8c8c8401916114ff565b03925af18015610f0757610ef4575b508a9897989695965b848110610dc3575050505090610d16918751978089528801916114ff565b918583038187015281835280830192818360051b820101958589925b858410610d63578a7fa1c3ef280bbac31181188d4beffe370ebae03e08d58a3aa4832b107d540c0a838b8b038ca180f35b9091929394959697601f198282030188528835601e1984360301811215610dbf578301868101919035858111610dbb578036038313610dbb57610dab88928392600195611363565b9a01980196959401929190610d32565b8c80fd5b8b80fd5b8b60059a999a9897988c83821b890135926003928784541692516371e8f36b60e11b815285888201528c818b81875afa8015610ee657610e0d918e8592610ec9575b505015611317565b823b1561047c578f9282868b8a838851958694859363e26d07d360e01b85528401525af18015610ebf57610ea6575b508482528b5220017402000000000000000000000000000000000000000060ff60a01b19825416179055610e7260085442611290565b908d52600688528b8d20556000198114610e9457600101989798969596610cf8565b634e487b7160e01b8c5260118252838cfd5b82919350610eb3906112b3565b61076d578e9138610e3c565b84513d85823e3d90fd5b610edf9250803d106106de576106d081836112dd565b388e610e05565b5050508e51903d90823e3d90fd5b610f00909b919b6112b3565b9938610cef565b8b513d8e823e3d90fd5b8a80fd5b8880fd5b83601260649260208b519362461bcd60e51b85528401528201527f696e76616c6964207265717565737449647300000000000000000000000000006044820152fd5b8480fd5b83823461047c57602036600319011261047c57610f7a61117f565b6001600160a01b0390610f91828554163314611245565b166001600160a01b031982541617905580f35b83823461047c57602036600319011261047c57803567ffffffffffffffff811161020a57610b8892503691016111b0565b50903461020a57606036600319011261020a57610ff061117f565b6024356001600160a01b038082168092036104785760443593818516809503610474578187541661104b575061102533611581565b6001600160a01b0319921682600154161760015581600354161760035582541617905580f35b5162461bcd60e51b8152602081870152601160248201527f6f776e657220616c7265616479207365740000000000000000000000000000006044820152606490fd5b50913461076d578060031936011261076d57506001600160a01b0360209254169051908152f35b50903461020a57602036600319011261020a577fedb9338f4b0faf2b899d2d7f54b90753d2a8ebb34936e381edb91b091c3e45a791356110ff6001600160a01b038554163314611245565b600854908060085582519182526020820152a180f35b9291905034610af3576020366003190112610af357606093829135815260066020522090815491600260ff6001830154169101549284526111558161115f565b6020840152820152f35b6003111561116957565b634e487b7160e01b600052602160045260246000fd5b600435906001600160a01b038216820361119557565b600080fd5b602435906001600160a01b038216820361119557565b9181601f840112156111955782359167ffffffffffffffff8311611195576020838186019501011161119557565b9181601f840112156111955782359167ffffffffffffffff8311611195576020808501948460051b01011161119557565b6024359067ffffffffffffffff8216820361119557565b60203660031901121561153c57600080fd5b9060088210156111695752565b1561124c57565b606460405162461bcd60e51b815260206004820152602060248201527f4f776e61626c653a2063616c6c6572206973206e6f7420746865206f776e65726044820152fd5b9190820180921161129d57565b634e487b7160e01b600052601160045260246000fd5b67ffffffffffffffff81116112c757604052565b634e487b7160e01b600052604160045260246000fd5b90601f8019910116810190811067ffffffffffffffff8211176112c757604052565b90816020910312611195575180151581036111955790565b1561131e57565b60405162461bcd60e51b815260206004820152601760248201527f70726f6f6620616c72656164792067656e6572617465640000000000000000006044820152606490fd5b908060209392818452848401376000828201840152601f01601f1916010190565b3d156113bf573d9067ffffffffffffffff82116112c757604051916113b3601f8201601f1916602001846112dd565b82523d6000602084013e565b606090565b156113cb57565b60405162461bcd60e51b815260206004820152601260248201527f73656e64206e6174697665206661696c656400000000000000000000000000006044820152606490fd5b60008181526020906005825260409060ff6003838320015460a01c1660088110156114a85760021480156114d9575b806114c5575b6114bc578381526005835260ff6003838320015460a01c1660088110156114a85760041480611491575b61148857600560039360ff9583525220015460a01c1690565b50505050600590565b50838152600683526002828220015442101561146f565b634e487b7160e01b82526021600452602482fd5b50505050600690565b508381526006835281812054421015611445565b508381526005835260ff6003838320015460a01c1660088110156114a85760031461143f565b90918281527f07ffffffffffffffffffffffffffffffffffffffffffffffffffffffffffffff83116111955760209260051b809284830137010190565b60405162461bcd60e51b815260206004820152600f60248201527f6e6f7420696d706c656d656e74656400000000000000000000000000000000006044820152606490fd5b600054906001600160a01b0380911691826001600160a01b0319821617600055167f8be0079c531659141344cd1fd0a4f28419497f9722a3daafe3b4186f6b6457e0600080a356fea264697066735822122093c7463fa7d52e6fd655a2cbf42d306d127060c8f4abcab2abe5ea64effcada964736f6c63430008140033",
  "devdoc": {
    "kind": "dev",
    "methods": {
      "owner()": {
        "details": "Returns the address of the current owner."
      },
      "transferOwnership(address)": {
        "details": "Transfers ownership of the contract to a new account (`newOwner`). Can only be called by the current owner."
      }
    },
    "version": 1
  },
  "userdoc": {
    "kind": "user",
    "methods": {},
    "version": 1
  },
  "storageLayout": {
    "storage": [
      {
        "astId": 1915,
        "contract": "contracts/core/BrevisRequest.sol:BrevisRequest",
        "label": "_owner",
        "offset": 0,
        "slot": "0",
        "type": "t_address"
      },
      {
        "astId": 1373,
        "contract": "contracts/core/BrevisRequest.sol:BrevisRequest",
        "label": "feeCollector",
        "offset": 0,
        "slot": "1",
        "type": "t_address"
      },
      {
        "astId": 606,
        "contract": "contracts/core/BrevisRequest.sol:BrevisRequest",
        "label": "requestTimeout",
        "offset": 0,
        "slot": "2",
        "type": "t_uint256"
      },
      {
        "astId": 609,
        "contract": "contracts/core/BrevisRequest.sol:BrevisRequest",
        "label": "brevisProof",
        "offset": 0,
        "slot": "3",
        "type": "t_contract(IBrevisProof)1359"
      },
      {
        "astId": 612,
        "contract": "contracts/core/BrevisRequest.sol:BrevisRequest",
        "label": "brevisEigen",
        "offset": 0,
        "slot": "4",
        "type": "t_contract(IBrevisEigen)1315"
      },
      {
        "astId": 646,
        "contract": "contracts/core/BrevisRequest.sol:BrevisRequest",
        "label": "requests",
        "offset": 0,
        "slot": "5",
        "type": "t_mapping(t_bytes32,t_struct(Request)641_storage)"
      },
      {
        "astId": 997,
        "contract": "contracts/core/BrevisRequest.sol:BrevisRequest",
        "label": "requestExts",
        "offset": 0,
        "slot": "6",
        "type": "t_mapping(t_bytes32,t_struct(RequestExt)992_storage)"
      },
      {
        "astId": 1001,
        "contract": "contracts/core/BrevisRequest.sol:BrevisRequest",
        "label": "keccakToMimc",
        "offset": 0,
        "slot": "7",
        "type": "t_mapping(t_bytes32,t_bytes32)"
      },
      {
        "astId": 1003,
        "contract": "contracts/core/BrevisRequest.sol:BrevisRequest",
        "label": "challengeWindow",
        "offset": 0,
        "slot": "8",
        "type": "t_uint256"
      },
      {
        "astId": 1005,
        "contract": "contracts/core/BrevisRequest.sol:BrevisRequest",
        "label": "responseTimeout",
        "offset": 0,
        "slot": "9",
        "type": "t_uint256"
      }
    ],
    "types": {
      "t_address": {
        "encoding": "inplace",
        "label": "address",
        "numberOfBytes": "20"
      },
      "t_bytes32": {
        "encoding": "inplace",
        "label": "bytes32",
        "numberOfBytes": "32"
      },
      "t_contract(IBrevisApp)1306": {
        "encoding": "inplace",
        "label": "contract IBrevisApp",
        "numberOfBytes": "20"
      },
      "t_contract(IBrevisEigen)1315": {
        "encoding": "inplace",
        "label": "contract IBrevisEigen",
        "numberOfBytes": "20"
      },
      "t_contract(IBrevisProof)1359": {
        "encoding": "inplace",
        "label": "contract IBrevisProof",
        "numberOfBytes": "20"
      },
      "t_enum(AskForType)984": {
        "encoding": "inplace",
        "label": "enum BrevisRequest.AskForType",
        "numberOfBytes": "1"
      },
      "t_enum(Option)625": {
        "encoding": "inplace",
        "label": "enum BrevisRequest.Option",
        "numberOfBytes": "1"
      },
      "t_enum(RequestStatus)621": {
        "encoding": "inplace",
        "label": "enum BrevisRequest.RequestStatus",
        "numberOfBytes": "1"
      },
      "t_mapping(t_bytes32,t_bytes32)": {
        "encoding": "mapping",
        "key": "t_bytes32",
        "label": "mapping(bytes32 => bytes32)",
        "numberOfBytes": "32",
        "value": "t_bytes32"
      },
      "t_mapping(t_bytes32,t_struct(Request)641_storage)": {
        "encoding": "mapping",
        "key": "t_bytes32",
        "label": "mapping(bytes32 => struct BrevisRequest.Request)",
        "numberOfBytes": "32",
        "value": "t_struct(Request)641_storage"
      },
      "t_mapping(t_bytes32,t_struct(RequestExt)992_storage)": {
        "encoding": "mapping",
        "key": "t_bytes32",
        "label": "mapping(bytes32 => struct BrevisRequest.RequestExt)",
        "numberOfBytes": "32",
        "value": "t_struct(RequestExt)992_storage"
      },
      "t_struct(Request)641_storage": {
        "encoding": "inplace",
        "label": "struct BrevisRequest.Request",
        "members": [
          {
            "astId": 627,
            "contract": "contracts/core/BrevisRequest.sol:BrevisRequest",
            "label": "deadline",
            "offset": 0,
            "slot": "0",
            "type": "t_uint256"
          },
          {
            "astId": 629,
            "contract": "contracts/core/BrevisRequest.sol:BrevisRequest",
            "label": "fee",
            "offset": 0,
            "slot": "1",
            "type": "t_uint256"
          },
          {
            "astId": 631,
            "contract": "contracts/core/BrevisRequest.sol:BrevisRequest",
            "label": "refundee",
            "offset": 0,
            "slot": "2",
            "type": "t_address"
          },
          {
            "astId": 634,
            "contract": "contracts/core/BrevisRequest.sol:BrevisRequest",
            "label": "callback",
            "offset": 0,
            "slot": "3",
            "type": "t_contract(IBrevisApp)1306"
          },
          {
            "astId": 637,
            "contract": "contracts/core/BrevisRequest.sol:BrevisRequest",
            "label": "status",
            "offset": 20,
            "slot": "3",
            "type": "t_enum(RequestStatus)621"
          },
          {
            "astId": 640,
            "contract": "contracts/core/BrevisRequest.sol:BrevisRequest",
            "label": "option",
            "offset": 21,
            "slot": "3",
            "type": "t_enum(Option)625"
          }
        ],
        "numberOfBytes": "128"
      },
      "t_struct(RequestExt)992_storage": {
        "encoding": "inplace",
        "label": "struct BrevisRequest.RequestExt",
        "members": [
          {
            "astId": 986,
            "contract": "contracts/core/BrevisRequest.sol:BrevisRequest",
            "label": "canChallengeBefore",
            "offset": 0,
            "slot": "0",
            "type": "t_uint256"
          },
          {
            "astId": 989,
            "contract": "contracts/core/BrevisRequest.sol:BrevisRequest",
            "label": "askFor",
            "offset": 0,
            "slot": "1",
            "type": "t_enum(AskForType)984"
          },
          {
            "astId": 991,
            "contract": "contracts/core/BrevisRequest.sol:BrevisRequest",
            "label": "shouldRespondBefore",
            "offset": 0,
            "slot": "2",
            "type": "t_uint256"
          }
        ],
        "numberOfBytes": "96"
      },
      "t_uint256": {
        "encoding": "inplace",
        "label": "uint256",
        "numberOfBytes": "32"
      }
    }
  }
}