{
  "address": "0xE7eD25434292cf0a7FfcF727e9cF66C88fC4aed3",
  "abi": [
    {
      "inputs": [
        {
          "internalType": "contract ISMT",
          "name": "_smtContract",
          "type": "address"
        }
      ],
      "stateMutability": "nonpayable",
      "type": "constructor"
    },
    {
      "anonymous": false,
      "inputs": [
        {
          "indexed": false,
          "internalType": "address",
          "name": "brevisRequest",
          "type": "address"
        }
      ],
      "name": "BrevisRequestUpdated",
      "type": "event"
    },
    {
      "anonymous": false,
      "inputs": [
        {
          "indexed": true,
          "internalType": "address",
          "name": "previousOwner",
          "type": "address"
        },
        {
          "indexed": true,
          "internalType": "address",
          "name": "newOwner",
          "type": "address"
        }
      ],
      "name": "OwnershipTransferred",
      "type": "event"
    },
    {
      "anonymous": false,
      "inputs": [
        {
          "indexed": false,
          "internalType": "contract ISMT",
          "name": "smtContract",
          "type": "address"
        }
      ],
      "name": "SmtContractUpdated",
      "type": "event"
    },
    {
      "anonymous": false,
      "inputs": [
        {
          "indexed": false,
          "internalType": "uint64[]",
          "name": "chainIds",
          "type": "uint64[]"
        },
        {
          "indexed": false,
          "internalType": "contract IZkpVerifier[]",
          "name": "newAddresses",
          "type": "address[]"
        }
      ],
      "name": "VerifierAddressesUpdated",
      "type": "event"
    },
    {
      "inputs": [],
      "name": "brevisRequest",
      "outputs": [
        {
          "internalType": "address",
          "name": "",
          "type": "address"
        }
      ],
      "stateMutability": "view",
      "type": "function"
    },
    {
      "inputs": [
        {
          "internalType": "bytes32",
          "name": "_requestId",
          "type": "bytes32"
        }
      ],
      "name": "getProofAppData",
      "outputs": [
        {
          "internalType": "bytes32",
          "name": "",
          "type": "bytes32"
        },
        {
          "internalType": "bytes32",
          "name": "",
          "type": "bytes32"
        }
      ],
      "stateMutability": "view",
      "type": "function"
    },
    {
      "inputs": [
        {
          "internalType": "bytes32",
          "name": "_requestId",
          "type": "bytes32"
        }
      ],
      "name": "hasProof",
      "outputs": [
        {
          "internalType": "bool",
          "name": "",
          "type": "bool"
        }
      ],
      "stateMutability": "view",
      "type": "function"
    },
    {
      "inputs": [
        {
          "internalType": "contract ISMT",
          "name": "_smtContract",
          "type": "address"
        }
      ],
      "name": "init",
      "outputs": [],
      "stateMutability": "nonpayable",
      "type": "function"
    },
    {
      "inputs": [],
      "name": "owner",
      "outputs": [
        {
          "internalType": "address",
          "name": "",
          "type": "address"
        }
      ],
      "stateMutability": "view",
      "type": "function"
    },
    {
      "inputs": [
        {
          "internalType": "bytes32",
          "name": "",
          "type": "bytes32"
        }
      ],
      "name": "proofs",
      "outputs": [
        {
          "internalType": "bytes32",
          "name": "commitHash",
          "type": "bytes32"
        },
        {
          "internalType": "bytes32",
          "name": "appCommitHash",
          "type": "bytes32"
        },
        {
          "internalType": "bytes32",
          "name": "appVkHash",
          "type": "bytes32"
        },
        {
          "internalType": "bytes32",
          "name": "smtRoot",
          "type": "bytes32"
        }
      ],
      "stateMutability": "view",
      "type": "function"
    },
    {
      "inputs": [],
      "name": "smtContract",
      "outputs": [
        {
          "internalType": "contract ISMT",
          "name": "",
          "type": "address"
        }
      ],
      "stateMutability": "view",
      "type": "function"
    },
    {
      "inputs": [
        {
          "internalType": "bytes32",
          "name": "_requestId",
          "type": "bytes32"
        }
      ],
      "name": "submitOpResult",
      "outputs": [],
      "stateMutability": "nonpayable",
      "type": "function"
    },
    {
      "inputs": [
        {
          "internalType": "uint64",
          "name": "_chainId",
          "type": "uint64"
        },
        {
          "internalType": "bytes",
          "name": "_proofWithPubInputs",
          "type": "bytes"
        }
      ],
      "name": "submitProof",
      "outputs": [
        {
          "internalType": "bytes32",
          "name": "_requestId",
          "type": "bytes32"
        }
      ],
      "stateMutability": "nonpayable",
      "type": "function"
    },
    {
      "inputs": [
        {
          "internalType": "address",
          "name": "newOwner",
          "type": "address"
        }
      ],
      "name": "transferOwnership",
      "outputs": [],
      "stateMutability": "nonpayable",
      "type": "function"
    },
    {
      "inputs": [
        {
          "internalType": "address",
          "name": "_brevisRequest",
          "type": "address"
        }
      ],
      "name": "updateBrevisRequest",
      "outputs": [],
      "stateMutability": "nonpayable",
      "type": "function"
    },
    {
      "inputs": [
        {
          "internalType": "contract ISMT",
          "name": "_smtContract",
          "type": "address"
        }
      ],
      "name": "updateSmtContract",
      "outputs": [],
      "stateMutability": "nonpayable",
      "type": "function"
    },
    {
      "inputs": [
        {
          "internalType": "uint64[]",
          "name": "_chainIds",
          "type": "uint64[]"
        },
        {
          "internalType": "contract IZkpVerifier[]",
          "name": "_verifierAddresses",
          "type": "address[]"
        }
      ],
      "name": "updateVerifierAddress",
      "outputs": [],
      "stateMutability": "nonpayable",
      "type": "function"
    },
    {
      "inputs": [
        {
          "internalType": "bytes32",
          "name": "_requestId",
          "type": "bytes32"
        },
        {
          "internalType": "uint64",
          "name": "_chainId",
          "type": "uint64"
        },
        {
          "components": [
            {
              "components": [
                {
                  "internalType": "uint64",
                  "name": "blkNum",
                  "type": "uint64"
                },
                {
                  "internalType": "uint64",
                  "name": "receiptIndex",
                  "type": "uint64"
                },
                {
                  "components": [
                    {
                      "internalType": "uint64",
                      "name": "logIndex",
                      "type": "uint64"
                    },
                    {
                      "internalType": "bytes32",
                      "name": "value",
                      "type": "bytes32"
                    },
                    {
                      "internalType": "bool",
                      "name": "valueFromTopic",
                      "type": "bool"
                    },
                    {
                      "internalType": "uint64",
                      "name": "valueIndex",
                      "type": "uint64"
                    },
                    {
                      "internalType": "address",
                      "name": "contractAddress",
                      "type": "address"
                    },
                    {
                      "internalType": "bytes32",
                      "name": "logTopic0",
                      "type": "bytes32"
                    }
                  ],
                  "internalType": "struct Brevis.LogInfo[]",
                  "name": "logs",
                  "type": "tuple[]"
                }
              ],
              "internalType": "struct Brevis.ReceiptInfo[]",
              "name": "receipts",
              "type": "tuple[]"
            },
            {
              "components": [
                {
                  "internalType": "bytes32",
                  "name": "blockHash",
                  "type": "bytes32"
                },
                {
                  "internalType": "address",
                  "name": "account",
                  "type": "address"
                },
                {
                  "internalType": "bytes32",
                  "name": "slot",
                  "type": "bytes32"
                },
                {
                  "internalType": "bytes32",
                  "name": "slotValue",
                  "type": "bytes32"
                },
                {
                  "internalType": "uint64",
                  "name": "blockNumber",
                  "type": "uint64"
                }
              ],
              "internalType": "struct Brevis.StorageInfo[]",
              "name": "stores",
              "type": "tuple[]"
            },
            {
              "components": [
                {
                  "internalType": "bytes32",
                  "name": "txHash",
                  "type": "bytes32"
                },
                {
                  "internalType": "bytes32",
                  "name": "hashOfRawTxData",
                  "type": "bytes32"
                },
                {
                  "internalType": "bytes32",
                  "name": "blockHash",
                  "type": "bytes32"
                },
                {
                  "internalType": "uint64",
                  "name": "blockNumber",
                  "type": "uint64"
                }
              ],
              "internalType": "struct Brevis.TransactionInfo[]",
              "name": "txs",
              "type": "tuple[]"
            }
          ],
          "internalType": "struct Brevis.ExtractInfos",
          "name": "_info",
          "type": "tuple"
        }
      ],
      "name": "validateOpRequest",
      "outputs": [],
      "stateMutability": "view",
      "type": "function"
    },
    {
      "inputs": [
        {
          "internalType": "uint64",
          "name": "",
          "type": "uint64"
        }
      ],
      "name": "verifierAddresses",
      "outputs": [
        {
          "internalType": "contract IZkpVerifier",
          "name": "",
          "type": "address"
        }
      ],
      "stateMutability": "view",
      "type": "function"
    }
  ],
  "transactionHash": "0xfef5e1fad46ec788853a95060e1effe79df1a28cd1217f5bb0cd6cab1d696cbd",
  "args": [
    "0x0000000000000000000000000000000000000000"
  ],
  "numDeployments": 1,
  "solcInputHash": "c28f6afaaca7973527279794d9efaecd",
  "bytecode": "0x6080346100a757601f6113f738819003918201601f19168301916001600160401b038311848410176100ac578084926020946040528339810103126100a757516001600160a01b0390818116908190036100a75760005460018060a01b0319903382821617600055604051933391167f8be0079c531659141344cd1fd0a4f28419497f9722a3daafe3b4186f6b6457e0600080a3600354161760035561133490816100c38239f35b600080fd5b634e487b7160e01b600052604160045260246000fdfe608060405260048036101561001357600080fd5b600090813560e01c9081631396511e14610f4557816319ab453c14610eb45781631acf1e1f14610e425781632792d466146108135781633221aec6146107ec57816338931a31146107c6578163444d95b01461077957816350d410631461059b5781635984fb92146105645781638da5cb5b1461053e578163e044095314610280578163e26d07d314610204578163e3d1e6d6146101be578163f2fde38b1461010a575063f5cec6af146100c657600080fd5b34610107576020366003190112610107576001600160a01b03604060209267ffffffffffffffff6100f5610fd4565b16815260018452205416604051908152f35b80fd5b9050346101ba5760203660031901126101ba57610125610fb9565b906001600160a01b0361013c81855416331461125b565b821615610150575061014d906112b6565b80f35b60849060206040519162461bcd60e51b8352820152602660248201527f4f776e61626c653a206e6577206f776e657220697320746865207a65726f206160448201527f64647265737300000000000000000000000000000000000000000000000000006064820152fd5b5080fd5b9050346101ba5760203660031901126101ba576020916040913581526002835220805415908115916101f6575b506040519015158152f35b6001915001541515386101eb565b9050346101ba5760203660031901126101ba578035906001600160a01b03815416330361023c57508082526002602052604082205580f35b60649060206040519162461bcd60e51b8352820152601160248201527f6e6f7420627265766973526571756573740000000000000000000000000000006044820152fd5b82346101075760403660031901126101075761029a610fd4565b90602491823567ffffffffffffffff80821161053a573660238301121561053a5781860135928184116105365736868585010111610536571694858452602095600187526001600160a01b0395866040872054169182156104f3576040516322bb937360e11b815289858201528683820152898160449589868a01888401378a878b840101528187818c601f801991011681010301915afa9081156104e85788916104cb575b5015610489576040519761035389611031565b8989019560408a01978061018011610481576101848201359a8b8152816101a011610485579082916101a46060959401359485910152806101e011610485576101e4820135895261020011610481578b9291610204879201358a526003541693604051948593849263080cdb0b60e11b84528a840152878301525afa908115610476578791610449575b50156104075750505090604060029251938581528387522092600184015551910155604051908152f35b60405162461bcd60e51b81529283018890526012908301527f736d7420726f6f74206e6f742076616c6964000000000000000000000000000090820152606490fd5b6104699150893d8b1161046f575b610461818361107f565b8101906110a1565b896103dd565b503d610457565b6040513d89823e3d90fd5b8980fd5b8a80fd5b60405162461bcd60e51b81528085018a9052600f818401527f70726f6f66206e6f742076616c6964000000000000000000000000000000000081850152606490fd5b6104e291508a3d8c1161046f57610461818361107f565b8a610340565b6040513d8a823e3d90fd5b60405162461bcd60e51b81528085018a90526016818401527f636861696e207665726966696572206e6f7420736574000000000000000000006044820152606490fd5b8480fd5b8380fd5b82346101075780600319360112610107576001600160a01b036020915416604051908152f35b9050346101ba5760203660031901126101ba5760409182913581526002602052206002600182015491015482519182526020820152f35b82346101075760403660031901126101075767ffffffffffffffff8235818111610775576105cc9036908501611000565b9390602435838111610536576105e59036908401611000565b9290956001600160a01b03916105ff83885416331461125b565b84820361073157509385939291935b8581106106ce5750604051948060408701604088525260608601929187905b8282106106a55750505050602081858293038287015283815201959285905b83821061067d57867f10ec8ad6a03997446c98d9aabf3ad339cc9621ec7cd4b47b04fe1ba8f75b4223878a0388a180f35b909192939687358281168091036106a157815283019683019392916001019061064c565b8780fd5b909192949593600190826106b888610feb565b168152949695602095860195019392019061062d565b6106e081858a989498979596976112a6565b358381168091036106a1579061072591876107046106ff84878a6112a6565b611226565b168952600160205260408920906001600160a01b031982541617905561117e565b9490949392919361060e565b60649060206040519162461bcd60e51b8352820152601060248201527f6c656e677468206e6f74206d61746368000000000000000000000000000000006044820152fd5b8280fd5b9050346101ba5760203660031901126101ba576080916040913581526002602052208054906001810154906003600282015491015491604051938452602084015260408301526060820152f35b823461010757806003193601126101075760206001600160a01b03835416604051908152f35b823461010757806003193601126101075760206001600160a01b0360035416604051908152f35b823461010757600319916060368401126101ba5760249081359267ffffffffffffffff84168403610107576044359467ffffffffffffffff86116101ba5760609086360301126101075781358152600260205260408120936040519461087886611031565b600381549182885260018101546020890152600281015460408901520154606087015215610dff5760609460646108de6108cf6108b7878b01806110b9565b90506108c7898c018c8a016110ef565b919050611125565b6108c760448b018b8901611148565b11610dbc579582915b6108f3858301806110b9565b9050831015610b6057839060605b61092461091a866109148a8801806110b9565b9061118d565b60408101906111c5565b9050831015610ac95761094061091a866109148a8801806110b9565b841015610ab75760c08085028201360312610ab3576040518060c081011067ffffffffffffffff60c083011117610aa15760c0810160405261098660c086028301610feb565b91828252602060c087028201013592836020840152604060c08802830101359283151593848103610a9d5760408201526109c7606060c08a02850101610feb565b908160608201526080938460c08b0282010135946001600160a01b0386168603610a995794610a939894610a7f9894848d60c0958560209b610a8d9d99015260a096879202010135948591015260405194888601966001600160c01b0319809460c01b168852602887015260f81b604886015260c01b1660498401526bffffffffffffffffffffffff199060601b166051830152606590818301528152610a6d81611063565b519020604051948592848401906111fb565b90815203808452018261107f565b9261117e565b91610901565b8d80fd5b8b80fd5b634e487b7160e01b8852604189528988fd5b8680fd5b634e487b7160e01b8752603288528887fd5b610b5792506020859985610b5193610a6d610b11989e9885610b0b610a7f999c8f61091490610b036106ff846109148c85018d86016110b9565b9801806110b9565b01611226565b92610b43604051938492888401966001600160c01b0319918260c091821b1689521b16602884015260308301906111fb565b03601f19810183528261107f565b9661117e565b919690966108e7565b879591925083965b610b768385018588016110ef565b9050881015610c6d57610b9788610b91858701878a016110ef565b9061123b565b356020610bac8a610b91878901898c016110ef565b01356001600160a01b0381168103610ab3576020610c6793610a7f93610c61936001600160c01b03198a8f610c1e8f610b0b838f946080936040610bfb610b9193610b918a8c018c86016110ef565b0135976060610c1285610b918b85018587016110ef565b013597810191016110ef565b91604051948886019687526bffffffffffffffffffffffff199060601b1660408601526054850152607484015260c01b166094820152607c8152610a6d81611063565b9761117e565b96610b68565b858585948982945b610c8460448901898701611148565b9050861015610d3c57610a7f610d306020610d369389896001600160c01b03198e610d056060610b0b610cc687610cc060448701878a01611148565b9061124b565b3596610cc08a610cdf83610cc060448a018a8d01611148565b0135976040610cf784610cc060448b018b8601611148565b013596604481019101611148565b90604051938785019586526040850152606084015260c01b16608082015260688152610a6d81611063565b9561117e565b94610c75565b610b43610d6b88929695966040519283916001600160c01b0319602084019660c01b16865260288301906111fb565b519020905103610d79578280f35b90601d60649260206040519362461bcd60e51b85528401528201527f636f6d6d69744861736820616e6420696e666f206e6f74206d617463680000006044820152fd5b60405162461bcd60e51b81526020818601526013818701527f65786365656473206d617820616c6c6f776564000000000000000000000000006044820152606490fd5b60405162461bcd60e51b81526020818501526010818601527f70726f6f66206e6f7420657869737473000000000000000000000000000000006044820152606490fd5b9050346101ba5760203660031901126101ba5760207ff98c05ab8c0aff645cf82c365a53f4ee82f61b1d94c4a71e867e0571b2ca920491610e81610fb9565b6001600160a01b0390610e9882875416331461125b565b1690816001600160a01b0319825416179055604051908152a180f35b9050346101ba5760203660031901126101ba578035906001600160a01b0380831680930361053a57835416610f015750610eed336112b6565b6001600160a01b0319600354161760035580f35b60649060206040519162461bcd60e51b8352820152601160248201527f6f776e657220616c7265616479207365740000000000000000000000000000006044820152fd5b9050346101ba5760203660031901126101ba57356001600160a01b03808216809203610775577f674c535cde998bcb47d0688f644df545597c7d6edb95643cb21c82c2d490ff7f91610f9d602092855416331461125b565b806001600160a01b03196003541617600355604051908152a180f35b600435906001600160a01b0382168203610fcf57565b600080fd5b6004359067ffffffffffffffff82168203610fcf57565b359067ffffffffffffffff82168203610fcf57565b9181601f84011215610fcf5782359167ffffffffffffffff8311610fcf576020808501948460051b010111610fcf57565b6080810190811067ffffffffffffffff82111761104d57604052565b634e487b7160e01b600052604160045260246000fd5b60a0810190811067ffffffffffffffff82111761104d57604052565b90601f8019910116810190811067ffffffffffffffff82111761104d57604052565b90816020910312610fcf57518015158103610fcf5790565b903590601e1981360301821215610fcf570180359067ffffffffffffffff8211610fcf57602001918160051b36038313610fcf57565b903590601e1981360301821215610fcf570180359067ffffffffffffffff8211610fcf576020019160a0820236038313610fcf57565b9190820180921161113257565b634e487b7160e01b600052601160045260246000fd5b903590601e1981360301821215610fcf570180359067ffffffffffffffff8211610fcf57602001918160071b36038313610fcf57565b60001981146111325760010190565b91908110156111af5760051b81013590605e1981360301821215610fcf570190565b634e487b7160e01b600052603260045260246000fd5b903590601e1981360301821215610fcf570180359067ffffffffffffffff8211610fcf576020019160c0820236038313610fcf57565b9081519160005b838110611213575050016000815290565b8060208092840101518185015201611202565b3567ffffffffffffffff81168103610fcf5790565b91908110156111af5760a0020190565b91908110156111af5760071b0190565b1561126257565b606460405162461bcd60e51b815260206004820152602060248201527f4f776e61626c653a2063616c6c6572206973206e6f7420746865206f776e65726044820152fd5b91908110156111af5760051b0190565b600054906001600160a01b0380911691826001600160a01b0319821617600055167f8be0079c531659141344cd1fd0a4f28419497f9722a3daafe3b4186f6b6457e0600080a356fea26469706673582212200bc4039a96a70c63b23c643ed0c44b55b48726879b554b99a848cabb0135a52e64736f6c63430008140033",
  "devdoc": {
    "kind": "dev",
    "methods": {
      "owner()": {
        "details": "Returns the address of the current owner."
      },
      "transferOwnership(address)": {
        "details": "Transfers ownership of the contract to a new account (`newOwner`). Can only be called by the current owner."
      }
    },
    "version": 1
  },
  "userdoc": {
    "kind": "user",
    "methods": {},
    "version": 1
  },
  "storageLayout": {
    "storage": [
      {
        "astId": 1186,
        "contract": "contracts/core/BrevisProof.sol:BrevisProof",
        "label": "_owner",
        "offset": 0,
        "slot": "0",
        "type": "t_address"
      },
      {
        "astId": 17,
        "contract": "contracts/core/BrevisProof.sol:BrevisProof",
        "label": "verifierAddresses",
        "offset": 0,
        "slot": "1",
        "type": "t_mapping(t_uint64,t_contract(IZkpVerifier)723)"
      },
      {
        "astId": 22,
        "contract": "contracts/core/BrevisProof.sol:BrevisProof",
        "label": "proofs",
        "offset": 0,
        "slot": "2",
        "type": "t_mapping(t_bytes32,t_struct(ProofData)790_storage)"
      },
      {
        "astId": 25,
        "contract": "contracts/core/BrevisProof.sol:BrevisProof",
        "label": "smtContract",
        "offset": 0,
        "slot": "3",
        "type": "t_contract(ISMT)694"
      },
      {
        "astId": 27,
        "contract": "contracts/core/BrevisProof.sol:BrevisProof",
        "label": "brevisRequest",
        "offset": 0,
        "slot": "4",
        "type": "t_address"
      }
    ],
    "types": {
      "t_address": {
        "encoding": "inplace",
        "label": "address",
        "numberOfBytes": "20"
      },
      "t_bytes32": {
        "encoding": "inplace",
        "label": "bytes32",
        "numberOfBytes": "32"
      },
      "t_contract(ISMT)694": {
        "encoding": "inplace",
        "label": "contract ISMT",
        "numberOfBytes": "20"
      },
      "t_contract(IZkpVerifier)723": {
        "encoding": "inplace",
        "label": "contract IZkpVerifier",
        "numberOfBytes": "20"
      },
      "t_mapping(t_bytes32,t_struct(ProofData)790_storage)": {
        "encoding": "mapping",
        "key": "t_bytes32",
        "label": "mapping(bytes32 => struct Brevis.ProofData)",
        "numberOfBytes": "32",
        "value": "t_struct(ProofData)790_storage"
      },
      "t_mapping(t_uint64,t_contract(IZkpVerifier)723)": {
        "encoding": "mapping",
        "key": "t_uint64",
        "label": "mapping(uint64 => contract IZkpVerifier)",
        "numberOfBytes": "32",
        "value": "t_contract(IZkpVerifier)723"
      },
      "t_struct(ProofData)790_storage": {
        "encoding": "inplace",
        "label": "struct Brevis.ProofData",
        "members": [
          {
            "astId": 783,
            "contract": "contracts/core/BrevisProof.sol:BrevisProof",
            "label": "commitHash",
            "offset": 0,
            "slot": "0",
            "type": "t_bytes32"
          },
          {
            "astId": 785,
            "contract": "contracts/core/BrevisProof.sol:BrevisProof",
            "label": "appCommitHash",
            "offset": 0,
            "slot": "1",
            "type": "t_bytes32"
          },
          {
            "astId": 787,
            "contract": "contracts/core/BrevisProof.sol:BrevisProof",
            "label": "appVkHash",
            "offset": 0,
            "slot": "2",
            "type": "t_bytes32"
          },
          {
            "astId": 789,
            "contract": "contracts/core/BrevisProof.sol:BrevisProof",
            "label": "smtRoot",
            "offset": 0,
            "slot": "3",
            "type": "t_bytes32"
          }
        ],
        "numberOfBytes": "128"
      },
      "t_uint64": {
        "encoding": "inplace",
        "label": "uint64",
        "numberOfBytes": "8"
      }
    }
  }
}