{
  "address": "0xf535C8066874F7647489c863fb05b913aD82636C",
  "abi": [
    {
      "inputs": [
        {
          "internalType": "address",
          "name": "_feeCollector",
          "type": "address"
        },
        {
          "internalType": "contract IBrevisProof",
          "name": "_brevisProof",
          "type": "address"
        },
        {
          "internalType": "contract IBrevisEigen",
          "name": "_brevisEigen",
          "type": "address"
        }
      ],
      "stateMutability": "nonpayable",
      "type": "constructor"
    },
    {
      "anonymous": false,
      "inputs": [
        {
          "indexed": true,
          "internalType": "bytes32",
          "name": "requestId",
          "type": "bytes32"
        },
        {
          "indexed": false,
          "internalType": "enum BrevisRequest.AskForType",
          "name": "askFor",
          "type": "uint8"
        },
        {
          "indexed": false,
          "internalType": "address",
          "name": "from",
          "type": "address"
        }
      ],
      "name": "AskFor",
      "type": "event"
    },
    {
      "anonymous": false,
      "inputs": [
        {
          "indexed": false,
          "internalType": "uint256",
          "name": "from",
          "type": "uint256"
        },
        {
          "indexed": false,
          "internalType": "uint256",
          "name": "to",
          "type": "uint256"
        }
      ],
      "name": "ChallengeWindowUpdated",
      "type": "event"
    },
    {
      "anonymous": false,
      "inputs": [
        {
          "indexed": false,
          "internalType": "address",
          "name": "from",
          "type": "address"
        },
        {
          "indexed": false,
          "internalType": "address",
          "name": "to",
          "type": "address"
        }
      ],
      "name": "FeeCollectorUpdated",
      "type": "event"
    },
    {
      "anonymous": false,
      "inputs": [
        {
          "indexed": false,
          "internalType": "bytes32[]",
          "name": "requestIds",
          "type": "bytes32[]"
        },
        {
          "indexed": false,
          "internalType": "bytes[]",
          "name": "queryURLs",
          "type": "bytes[]"
        }
      ],
      "name": "OpRequestsFulfilled",
      "type": "event"
    },
    {
      "anonymous": false,
      "inputs": [
        {
          "indexed": true,
          "internalType": "address",
          "name": "previousOwner",
          "type": "address"
        },
        {
          "indexed": true,
          "internalType": "address",
          "name": "newOwner",
          "type": "address"
        }
      ],
      "name": "OwnershipTransferred",
      "type": "event"
    },
    {
      "anonymous": false,
      "inputs": [
        {
          "indexed": true,
          "internalType": "bytes32",
          "name": "requestId",
          "type": "bytes32"
        }
      ],
      "name": "ProofPost",
      "type": "event"
    },
    {
      "anonymous": false,
      "inputs": [
        {
          "indexed": true,
          "internalType": "bytes32",
          "name": "requestId",
          "type": "bytes32"
        }
      ],
      "name": "QueryDataPost",
      "type": "event"
    },
    {
      "anonymous": false,
      "inputs": [
        {
          "indexed": false,
          "internalType": "bytes32",
          "name": "requestId",
          "type": "bytes32"
        }
      ],
      "name": "RequestFulfilled",
      "type": "event"
    },
    {
      "anonymous": false,
      "inputs": [
        {
          "indexed": false,
          "internalType": "bytes32",
          "name": "requestId",
          "type": "bytes32"
        }
      ],
      "name": "RequestRefunded",
      "type": "event"
    },
    {
      "anonymous": false,
      "inputs": [
        {
          "indexed": false,
          "internalType": "bytes32",
          "name": "requestId",
          "type": "bytes32"
        },
        {
          "indexed": false,
          "internalType": "address",
          "name": "sender",
          "type": "address"
        },
        {
          "indexed": false,
          "internalType": "uint256",
          "name": "fee",
          "type": "uint256"
        },
        {
          "indexed": false,
          "internalType": "contract IBrevisApp",
          "name": "callback",
          "type": "address"
        },
        {
          "indexed": false,
          "internalType": "enum BrevisRequest.Option",
          "name": "option",
          "type": "uint8"
        }
      ],
      "name": "RequestSent",
      "type": "event"
    },
    {
      "anonymous": false,
      "inputs": [
        {
          "indexed": false,
          "internalType": "uint256",
          "name": "from",
          "type": "uint256"
        },
        {
          "indexed": false,
          "internalType": "uint256",
          "name": "to",
          "type": "uint256"
        }
      ],
      "name": "RequestTimeoutUpdated",
      "type": "event"
    },
    {
      "anonymous": false,
      "inputs": [
        {
          "indexed": false,
          "internalType": "uint256",
          "name": "from",
          "type": "uint256"
        },
        {
          "indexed": false,
          "internalType": "uint256",
          "name": "to",
          "type": "uint256"
        }
      ],
      "name": "ResponseTimeoutUpdated",
      "type": "event"
    },
    {
      "inputs": [
        {
          "internalType": "bytes32",
          "name": "",
          "type": "bytes32"
        }
      ],
      "name": "askForProof",
      "outputs": [],
      "stateMutability": "payable",
      "type": "function"
    },
    {
      "inputs": [
        {
          "internalType": "bytes32",
          "name": "",
          "type": "bytes32"
        }
      ],
      "name": "askForQueryData",
      "outputs": [],
      "stateMutability": "payable",
      "type": "function"
    },
    {
      "inputs": [],
      "name": "brevisEigen",
      "outputs": [
        {
          "internalType": "contract IBrevisEigen",
          "name": "",
          "type": "address"
        }
      ],
      "stateMutability": "view",
      "type": "function"
    },
    {
      "inputs": [],
      "name": "brevisProof",
      "outputs": [
        {
          "internalType": "contract IBrevisProof",
          "name": "",
          "type": "address"
        }
      ],
      "stateMutability": "view",
      "type": "function"
    },
    {
      "inputs": [
        {
          "internalType": "bytes",
          "name": "",
          "type": "bytes"
        }
      ],
      "name": "challengeQueryData",
      "outputs": [],
      "stateMutability": "pure",
      "type": "function"
    },
    {
      "inputs": [],
      "name": "challengeWindow",
      "outputs": [
        {
          "internalType": "uint256",
          "name": "",
          "type": "uint256"
        }
      ],
      "stateMutability": "view",
      "type": "function"
    },
    {
      "inputs": [
        {
          "internalType": "uint256",
          "name": "_amount",
          "type": "uint256"
        },
        {
          "internalType": "address",
          "name": "_to",
          "type": "address"
        }
      ],
      "name": "collectFee",
      "outputs": [],
      "stateMutability": "nonpayable",
      "type": "function"
    },
    {
      "inputs": [],
      "name": "feeCollector",
      "outputs": [
        {
          "internalType": "address",
          "name": "",
          "type": "address"
        }
      ],
      "stateMutability": "view",
      "type": "function"
    },
    {
      "inputs": [
        {
          "internalType": "bytes32[]",
          "name": "_requestIds",
          "type": "bytes32[]"
        },
        {
          "internalType": "bytes[]",
          "name": "_queryURLs",
          "type": "bytes[]"
        }
      ],
      "name": "fulfillOpRequests",
      "outputs": [],
      "stateMutability": "nonpayable",
      "type": "function"
    },
    {
      "inputs": [
        {
          "internalType": "bytes32",
          "name": "_requestId",
          "type": "bytes32"
        },
        {
          "internalType": "uint64",
          "name": "_chainId",
          "type": "uint64"
        },
        {
          "internalType": "bytes",
          "name": "_proof",
          "type": "bytes"
        },
        {
          "internalType": "bytes",
          "name": "_appCircuitOutput",
          "type": "bytes"
        }
      ],
      "name": "fulfillRequest",
      "outputs": [],
      "stateMutability": "nonpayable",
      "type": "function"
    },
    {
      "inputs": [
        {
          "internalType": "address",
          "name": "_feeCollector",
          "type": "address"
        },
        {
          "internalType": "contract IBrevisProof",
          "name": "_brevisProof",
          "type": "address"
        },
        {
          "internalType": "contract IBrevisEigen",
          "name": "_brevisEigen",
          "type": "address"
        }
      ],
      "name": "init",
      "outputs": [],
      "stateMutability": "nonpayable",
      "type": "function"
    },
    {
      "inputs": [
        {
          "internalType": "bytes32",
          "name": "",
          "type": "bytes32"
        }
      ],
      "name": "keccakToMimc",
      "outputs": [
        {
          "internalType": "bytes32",
          "name": "",
          "type": "bytes32"
        }
      ],
      "stateMutability": "view",
      "type": "function"
    },
    {
      "inputs": [],
      "name": "owner",
      "outputs": [
        {
          "internalType": "address",
          "name": "",
          "type": "address"
        }
      ],
      "stateMutability": "view",
      "type": "function"
    },
    {
      "inputs": [
        {
          "internalType": "bytes32",
          "name": "",
          "type": "bytes32"
        },
        {
          "internalType": "uint64",
          "name": "",
          "type": "uint64"
        },
        {
          "internalType": "bytes",
          "name": "",
          "type": "bytes"
        }
      ],
      "name": "postProof",
      "outputs": [],
      "stateMutability": "pure",
      "type": "function"
    },
    {
      "inputs": [
        {
          "internalType": "bytes32",
          "name": "",
          "type": "bytes32"
        },
        {
          "internalType": "bytes",
          "name": "",
          "type": "bytes"
        }
      ],
      "name": "postQueryData",
      "outputs": [],
      "stateMutability": "pure",
      "type": "function"
    },
    {
      "inputs": [
        {
          "internalType": "bytes32",
          "name": "_requestId",
          "type": "bytes32"
        }
      ],
      "name": "queryRequestStatus",
      "outputs": [
        {
          "internalType": "enum BrevisRequest.RequestStatus",
          "name": "",
          "type": "uint8"
        }
      ],
      "stateMutability": "view",
      "type": "function"
    },
    {
      "inputs": [
        {
          "internalType": "bytes32",
          "name": "_requestId",
          "type": "bytes32"
        }
      ],
      "name": "refund",
      "outputs": [],
      "stateMutability": "nonpayable",
      "type": "function"
    },
    {
      "inputs": [
        {
          "internalType": "bytes32",
          "name": "",
          "type": "bytes32"
        }
      ],
      "name": "requestExts",
      "outputs": [
        {
          "internalType": "uint256",
          "name": "canChallengeBefore",
          "type": "uint256"
        },
        {
          "internalType": "enum BrevisRequest.AskForType",
          "name": "askFor",
          "type": "uint8"
        },
        {
          "internalType": "uint256",
          "name": "shouldRespondBefore",
          "type": "uint256"
        }
      ],
      "stateMutability": "view",
      "type": "function"
    },
    {
      "inputs": [],
      "name": "requestTimeout",
      "outputs": [
        {
          "internalType": "uint256",
          "name": "",
          "type": "uint256"
        }
      ],
      "stateMutability": "view",
      "type": "function"
    },
    {
      "inputs": [
        {
          "internalType": "bytes32",
          "name": "",
          "type": "bytes32"
        }
      ],
      "name": "requests",
      "outputs": [
        {
          "internalType": "uint256",
          "name": "deadline",
          "type": "uint256"
        },
        {
          "internalType": "uint256",
          "name": "fee",
          "type": "uint256"
        },
        {
          "internalType": "address",
          "name": "refundee",
          "type": "address"
        },
        {
          "internalType": "contract IBrevisApp",
          "name": "callback",
          "type": "address"
        },
        {
          "internalType": "enum BrevisRequest.RequestStatus",
          "name": "status",
          "type": "uint8"
        },
        {
          "internalType": "enum BrevisRequest.Option",
          "name": "option",
          "type": "uint8"
        }
      ],
      "stateMutability": "view",
      "type": "function"
    },
    {
      "inputs": [],
      "name": "responseTimeout",
      "outputs": [
        {
          "internalType": "uint256",
          "name": "",
          "type": "uint256"
        }
      ],
      "stateMutability": "view",
      "type": "function"
    },
    {
      "inputs": [
        {
          "internalType": "bytes32",
          "name": "_requestId",
          "type": "bytes32"
        },
        {
          "internalType": "address",
          "name": "_refundee",
          "type": "address"
        },
        {
          "internalType": "contract IBrevisApp",
          "name": "_callback",
          "type": "address"
        },
        {
          "internalType": "enum BrevisRequest.Option",
          "name": "_option",
          "type": "uint8"
        }
      ],
      "name": "sendRequest",
      "outputs": [],
      "stateMutability": "payable",
      "type": "function"
    },
    {
      "inputs": [
        {
          "internalType": "contract IBrevisEigen",
          "name": "_brevisEigen",
          "type": "address"
        }
      ],
      "name": "setBrevisEigen",
      "outputs": [],
      "stateMutability": "nonpayable",
      "type": "function"
    },
    {
      "inputs": [
        {
          "internalType": "uint256",
          "name": "_challengeWindow",
          "type": "uint256"
        }
      ],
      "name": "setChallengeWindow",
      "outputs": [],
      "stateMutability": "nonpayable",
      "type": "function"
    },
    {
      "inputs": [
        {
          "internalType": "address",
          "name": "_feeCollector",
          "type": "address"
        }
      ],
      "name": "setFeeCollector",
      "outputs": [],
      "stateMutability": "nonpayable",
      "type": "function"
    },
    {
      "inputs": [
        {
          "internalType": "uint256",
          "name": "_timeout",
          "type": "uint256"
        }
      ],
      "name": "setRequestTimeout",
      "outputs": [],
      "stateMutability": "nonpayable",
      "type": "function"
    },
    {
      "inputs": [
        {
          "internalType": "uint256",
          "name": "_responseTimeout",
          "type": "uint256"
        }
      ],
      "name": "setResponseTimeout",
      "outputs": [],
      "stateMutability": "nonpayable",
      "type": "function"
    },
    {
      "inputs": [
        {
          "internalType": "address",
          "name": "newOwner",
          "type": "address"
        }
      ],
      "name": "transferOwnership",
      "outputs": [],
      "stateMutability": "nonpayable",
      "type": "function"
    },
    {
      "stateMutability": "payable",
      "type": "receive"
    }
  ],
  "transactionHash": "0xdd8b5e2ae2fb68ba2a3a6f17ed0b320c96278f469c627d87ca9301466fd5601d",
  "args": [
    "0x58b529F9084D7eAA598EB3477Fe36064C5B7bbC1",
    "0xFF71BA4db245F08c739492b67e65D77C5B04B325",
    "0xB869fC71BEa0880E44dcFf4Ca338F5bEF0a3D0fb"
  ],
  "numDeployments": 1,
  "solcInputHash": "4636f0368c29175702b7c4117f67f147",
  "bytecode": "0x6080346100db57601f61167b38819003918201601f19168301916001600160401b038311848410176100e0578084926060946040528339810103126100db5780516001600160a01b039190828116908190036100db576020820151918383168093036100db5760400151918383168093036100db576000549160018060a01b0319923384821617600055604051953391167f8be0079c531659141344cd1fd0a4f28419497f9722a3daafe3b4186f6b6457e0600080a3826001541617600155816003541617600355600454161760045561158490816100f78239f35b600080fd5b634e487b7160e01b600052604160045260246000fdfe60806040818152600480361015610021575b505050361561001f57600080fd5b005b600092833560e01c908162a731ed146110745750806301c1aa0d146110135780630de4c3d714610fec578063184b955914610f345780632763ce8a14610f035780632d85fa2014610ebe57806332e7ed8114610bef5780633f20b4c914610bd057806361b9fd7314610b95578063622b6af414610b3457806369c228a114610afd57806369dc190314610a9c5780636db03b1d146107705780637249fbb6146109845780637ff7b0d2146108f7578063861a1412146108d85780638da5cb5b146108b257806395d396561461088b5780639d8669851461080d578063a17ed96c146107ee578063a42dce8014610775578063a4514ff314610770578063b6979c3e1461073f578063c415b95c14610717578063c7f5aaa0146106ef578063da03667a14610480578063f2a9c6661461020e5763f2fde38b03610011573461020a57602036600319011261020a576101766110de565b916001600160a01b0361018d8186541633146111a4565b8316156101a1578361019e84611506565b80f35b906020608492519162461bcd60e51b8352820152602660248201527f4f776e61626c653a206e6577206f776e657220697320746865207a65726f206160448201527f64647265737300000000000000000000000000000000000000000000000000006064820152fd5b8280fd5b509190608036600319011261047c578235906102286110f9565b90604435906001600160a01b03928383168093036104785760643593600385101561047457858752602091600583528388205461043157811680156103ee57610273600254426111ef565b9084519160c0830183811067ffffffffffffffff8211176103d957899389938c96936003938a5282528782013481528983019182528960608401988c8a526080850198818a5260a08601986102c7816110be565b8952815260058b52209251835551600183015583600283019151166001600160a01b031982541617905501935116835492519160088310156103c6579174ff00000000000000000000000000000000000000007f8351e4cc62a96a972da26714bfbb019926334976bb613c36e0dc72b69cf8f5649a989694927fffffffffffffffffffff0000000000000000000000000000000000000000000075ff00000000000000000000000000000000000000000060a09c9a989651610388816110be565b610391816110be565b60a81b16941617918a1b161717905581519485523390850152349084015260608301526103bd816110be565b6080820152a180f35b634e487b7160e01b8b5260218c5260248bfd5b60418c634e487b7160e01b6000525260246000fd5b835162461bcd60e51b8152808a01849052601560248201527f726566756e646565206e6f742070726f766964656400000000000000000000006044820152606490fd5b835162461bcd60e51b8152808a01849052601860248201527f7265717565737420616c726561647920696e20717565756500000000000000006044820152606490fd5b8680fd5b8580fd5b5080fd5b5082903461047c57608036600319011261047c57803561049e61116e565b9067ffffffffffffffff604435818111610478576104bf903690860161110f565b9190946064358281116106a3576104d9903690830161110f565b9390956001600160a01b03938460035416918b51996371e8f36b60e11b8b5288868c015260209a8b81602481885afa9081156106e557926105558f95938f938f98969061052e9186916106b8575b5015611276565b86519889978896879563e044095360e01b8752168c860152602485015260448401916112c2565b03925af19081156106ae57889161067d575b50840361063a5750958596838752600586526003828820017401000000000000000000000000000000000000000060ff60a01b198254161790557f85e1543bf2f84fe80c6badbce3648c8539ad1df4d2b3d822938ca0538be727e6868351868152a183875260058652600382882001541693846105e2578680f35b86956106136106219288958551958694850198633ceb5b5160e11b8a526024860152604485015260648401916112c2565b03601f19810183528261123c565b51925af15061062e6112e3565b50808280808080808680f35b875162461bcd60e51b8152908101869052601d60248201527f72657175657374496420616e642070726f6f66206e6f74206d617463680000006044820152606490fd5b90508681813d83116106a7575b610694818361123c565b810103126106a3575189610567565b8780fd5b503d61068a565b89513d8a823e3d90fd5b6106d891508a3d8c116106de575b6106d0818361123c565b81019061125e565b38610527565b503d6106c6565b8e513d8f823e3d90fd5b50503461047c578160031936011261047c576020906001600160a01b03600354169051908152f35b50503461047c578160031936011261047c576020906001600160a01b03600154169051908152f35b50913461076d57602036600319011261076d575061076b6107626020933561136f565b91518092611197565bf35b80fd5b611185565b50503461047c57602036600319011261047c577f5d16ad41baeb009cd23eb8f6c7cde5c2e0cd5acf4a33926ab488875c37c37f38906107b26110de565b6001600160a01b036107c88186541633146111a4565b80600154921690816001600160a01b03198416176001558351921682526020820152a180f35b50503461047c578160031936011261047c576020906009549051908152f35b503461020a57602036600319011261020a5760c092829135815260056020522061087b8154926001830154926001600160a01b03906003826002830154169101549260ff8460a81c1695815197885260208801528601528116606085015260ff608085019160a01c16611197565b610884816110be565b60a0820152f35b503461020a57602036600319011261020a5760209282913581526007845220549051908152f35b50503461047c578160031936011261047c576001600160a01b0360209254169051908152f35b50503461047c578160031936011261047c576020906008549051908152f35b503461020a578160031936011261020a576109106110f9565b916001600160a01b03600154163303610941575082808061019e948194359061c350f161093b6112e3565b50611323565b906020606492519162461bcd60e51b8352820152601160248201527f6e6f742066656520636f6c6c6563746f720000000000000000000000000000006044820152fd5b503461020a5760209081600319360112610a985783813591828252600584528482205442111561047c576001600160a01b039084846024846003541693895194859384926371e8f36b60e11b84528301525afa908115610a8e57928080610a4094610a1a82957ffea410cb461deba9fe807dde02d6641d82e1bf09ecc88ecfa0f2ffadf2a1fdfe9b988491610a77575015611276565b878252600589526001878320918383556002830154169101549061c350f161093b6112e3565b818552600583526003818620017407000000000000000000000000000000000000000060ff60a01b1982541617905551908152a180f35b6106d891508b3d8d116106de576106d0818361123c565b86513d85823e3d90fd5b8380fd5b50903461020a57602036600319011261020a577f86fe7fc31f35681a1ed77325f0cf24935a5d25b1861e7ce9ceed9cb67f2222709135610ae76001600160a01b0385541633146111a4565b600954908060095582519182526020820152a180f35b50903461020a5736600319011261047c5760243567ffffffffffffffff811161020a57610b2d925036910161110f565b50506114c1565b50903461020a57602036600319011261020a577f87a73c061f18ffd513249d1d727921e40e348948b01e2979efb36ef4f5204a639135610b7f6001600160a01b0385541633146111a4565b600254908060025582519182526020820152a180f35b83823461047c57606036600319011261047c57610bb061116e565b5060443567ffffffffffffffff811161020a57610b2d925036910161110f565b50503461047c578160031936011261047c576020906002549051908152f35b503461020a578160031936011261020a5767ffffffffffffffff8135818111610eba57610c1f903690840161113d565b909260249384358481116106a357610c3a903690840161113d565b9390958115610e7857848203610e74576001600160a01b038085541694853b15610e7057895163d1e3471560e01b81528b816020988985830152818381610c858c8c8c84019161145e565b03925af18015610e6657610e53575b508a9897989695965b848110610d68575050505090610cbb9187519780895288019161145e565b918583038187015281835280830192818360051b820101958589925b858410610d08578a7fa1c3ef280bbac31181188d4beffe370ebae03e08d58a3aa4832b107d540c0a838b8b038ca180f35b9091929394959697601f198282030188528835601e1984360301811215610d64578301868101919035858111610d60578036038313610d6057610d50889283926001956112c2565b9a01980196959401929190610cd7565b8c80fd5b8b80fd5b60039998999796978c84825416610d8084898b61149b565b35813b1561020a5782918f83928a9151948593849263e26d07d360e01b84528b8401525af18015610e4957610e35575b5050610dbd82878961149b565b358d52600588528b8d20017402000000000000000000000000000000000000000060ff60a01b19825416179055610df6600854426111ef565b610e0182878961149b565b358d52600688528b8d20556000198114610e2357600101989798969596610c9d565b634e487b7160e01b8c5260118252838cfd5b610e3e90611212565b610d60578c38610db0565b8e513d84823e3d90fd5b610e5f909b919b611212565b9938610c94565b8b513d8e823e3d90fd5b8a80fd5b8880fd5b83601260649260208b519362461bcd60e51b85528401528201527f696e76616c6964207265717565737449647300000000000000000000000000006044820152fd5b8480fd5b83823461047c57602036600319011261047c57610ed96110de565b6001600160a01b0390610ef08285541633146111a4565b166001600160a01b031982541617905580f35b83823461047c57602036600319011261047c57803567ffffffffffffffff811161020a57610b2d925036910161110f565b50903461020a57606036600319011261020a57610f4f6110de565b6024356001600160a01b0380821680920361047857604435938185168095036104745781875416610faa5750610f8433611506565b6001600160a01b0319921682600154161760015581600354161760035582541617905580f35b5162461bcd60e51b8152602081870152601160248201527f6f776e657220616c7265616479207365740000000000000000000000000000006044820152606490fd5b50913461076d578060031936011261076d57506001600160a01b0360209254169051908152f35b50903461020a57602036600319011261020a577fedb9338f4b0faf2b899d2d7f54b90753d2a8ebb34936e381edb91b091c3e45a7913561105e6001600160a01b0385541633146111a4565b600854908060085582519182526020820152a180f35b9291905034610a98576020366003190112610a9857606093829135815260066020522090815491600260ff6001830154169101549284526110b4816110be565b6020840152820152f35b600311156110c857565b634e487b7160e01b600052602160045260246000fd5b600435906001600160a01b03821682036110f457565b600080fd5b602435906001600160a01b03821682036110f457565b9181601f840112156110f45782359167ffffffffffffffff83116110f457602083818601950101116110f457565b9181601f840112156110f45782359167ffffffffffffffff83116110f4576020808501948460051b0101116110f457565b6024359067ffffffffffffffff821682036110f457565b6020366003190112156114c157600080fd5b9060088210156110c85752565b156111ab57565b606460405162461bcd60e51b815260206004820152602060248201527f4f776e61626c653a2063616c6c6572206973206e6f7420746865206f776e65726044820152fd5b919082018092116111fc57565b634e487b7160e01b600052601160045260246000fd5b67ffffffffffffffff811161122657604052565b634e487b7160e01b600052604160045260246000fd5b90601f8019910116810190811067ffffffffffffffff82111761122657604052565b908160209103126110f4575180151581036110f45790565b1561127d57565b60405162461bcd60e51b815260206004820152601760248201527f70726f6f6620616c72656164792067656e6572617465640000000000000000006044820152606490fd5b908060209392818452848401376000828201840152601f01601f1916010190565b3d1561131e573d9067ffffffffffffffff82116112265760405191611312601f8201601f19166020018461123c565b82523d6000602084013e565b606090565b1561132a57565b60405162461bcd60e51b815260206004820152601260248201527f73656e64206e6174697665206661696c656400000000000000000000000000006044820152606490fd5b60008181526020906005825260409060ff6003838320015460a01c166008811015611407576002148015611438575b80611424575b61141b578381526005835260ff6003838320015460a01c16600881101561140757600414806113f0575b6113e757600560039360ff9583525220015460a01c1690565b50505050600590565b5083815260068352600282822001544210156113ce565b634e487b7160e01b82526021600452602482fd5b50505050600690565b5083815260068352818120544210156113a4565b508381526005835260ff6003838320015460a01c1660088110156114075760031461139e565b90918281527f07ffffffffffffffffffffffffffffffffffffffffffffffffffffffffffffff83116110f45760209260051b809284830137010190565b91908110156114ab5760051b0190565b634e487b7160e01b600052603260045260246000fd5b60405162461bcd60e51b815260206004820152600f60248201527f6e6f7420696d706c656d656e74656400000000000000000000000000000000006044820152606490fd5b600054906001600160a01b0380911691826001600160a01b0319821617600055167f8be0079c531659141344cd1fd0a4f28419497f9722a3daafe3b4186f6b6457e0600080a356fea2646970667358221220725cf6e2250734da8a6ec8d11d5dfc0a022261efb0f94d3486b75e66a4e2584a64736f6c63430008140033",
  "devdoc": {
    "kind": "dev",
    "methods": {
      "owner()": {
        "details": "Returns the address of the current owner."
      },
      "transferOwnership(address)": {
        "details": "Transfers ownership of the contract to a new account (`newOwner`). Can only be called by the current owner."
      }
    },
    "version": 1
  },
  "userdoc": {
    "kind": "user",
    "methods": {},
    "version": 1
  },
  "storageLayout": {
    "storage": [
      {
        "astId": 1894,
        "contract": "contracts/core/BrevisRequest.sol:BrevisRequest",
        "label": "_owner",
        "offset": 0,
        "slot": "0",
        "type": "t_address"
      },
      {
        "astId": 1352,
        "contract": "contracts/core/BrevisRequest.sol:BrevisRequest",
        "label": "feeCollector",
        "offset": 0,
        "slot": "1",
        "type": "t_address"
      },
      {
        "astId": 606,
        "contract": "contracts/core/BrevisRequest.sol:BrevisRequest",
        "label": "requestTimeout",
        "offset": 0,
        "slot": "2",
        "type": "t_uint256"
      },
      {
        "astId": 609,
        "contract": "contracts/core/BrevisRequest.sol:BrevisRequest",
        "label": "brevisProof",
        "offset": 0,
        "slot": "3",
        "type": "t_contract(IBrevisProof)1338"
      },
      {
        "astId": 612,
        "contract": "contracts/core/BrevisRequest.sol:BrevisRequest",
        "label": "brevisEigen",
        "offset": 0,
        "slot": "4",
        "type": "t_contract(IBrevisEigen)1294"
      },
      {
        "astId": 646,
        "contract": "contracts/core/BrevisRequest.sol:BrevisRequest",
        "label": "requests",
        "offset": 0,
        "slot": "5",
        "type": "t_mapping(t_bytes32,t_struct(Request)641_storage)"
      },
      {
        "astId": 987,
        "contract": "contracts/core/BrevisRequest.sol:BrevisRequest",
        "label": "requestExts",
        "offset": 0,
        "slot": "6",
        "type": "t_mapping(t_bytes32,t_struct(RequestExt)982_storage)"
      },
      {
        "astId": 991,
        "contract": "contracts/core/BrevisRequest.sol:BrevisRequest",
        "label": "keccakToMimc",
        "offset": 0,
        "slot": "7",
        "type": "t_mapping(t_bytes32,t_bytes32)"
      },
      {
        "astId": 993,
        "contract": "contracts/core/BrevisRequest.sol:BrevisRequest",
        "label": "challengeWindow",
        "offset": 0,
        "slot": "8",
        "type": "t_uint256"
      },
      {
        "astId": 995,
        "contract": "contracts/core/BrevisRequest.sol:BrevisRequest",
        "label": "responseTimeout",
        "offset": 0,
        "slot": "9",
        "type": "t_uint256"
      }
    ],
    "types": {
      "t_address": {
        "encoding": "inplace",
        "label": "address",
        "numberOfBytes": "20"
      },
      "t_bytes32": {
        "encoding": "inplace",
        "label": "bytes32",
        "numberOfBytes": "32"
      },
      "t_contract(IBrevisApp)1285": {
        "encoding": "inplace",
        "label": "contract IBrevisApp",
        "numberOfBytes": "20"
      },
      "t_contract(IBrevisEigen)1294": {
        "encoding": "inplace",
        "label": "contract IBrevisEigen",
        "numberOfBytes": "20"
      },
      "t_contract(IBrevisProof)1338": {
        "encoding": "inplace",
        "label": "contract IBrevisProof",
        "numberOfBytes": "20"
      },
      "t_enum(AskForType)974": {
        "encoding": "inplace",
        "label": "enum BrevisRequest.AskForType",
        "numberOfBytes": "1"
      },
      "t_enum(Option)625": {
        "encoding": "inplace",
        "label": "enum BrevisRequest.Option",
        "numberOfBytes": "1"
      },
      "t_enum(RequestStatus)621": {
        "encoding": "inplace",
        "label": "enum BrevisRequest.RequestStatus",
        "numberOfBytes": "1"
      },
      "t_mapping(t_bytes32,t_bytes32)": {
        "encoding": "mapping",
        "key": "t_bytes32",
        "label": "mapping(bytes32 => bytes32)",
        "numberOfBytes": "32",
        "value": "t_bytes32"
      },
      "t_mapping(t_bytes32,t_struct(Request)641_storage)": {
        "encoding": "mapping",
        "key": "t_bytes32",
        "label": "mapping(bytes32 => struct BrevisRequest.Request)",
        "numberOfBytes": "32",
        "value": "t_struct(Request)641_storage"
      },
      "t_mapping(t_bytes32,t_struct(RequestExt)982_storage)": {
        "encoding": "mapping",
        "key": "t_bytes32",
        "label": "mapping(bytes32 => struct BrevisRequest.RequestExt)",
        "numberOfBytes": "32",
        "value": "t_struct(RequestExt)982_storage"
      },
      "t_struct(Request)641_storage": {
        "encoding": "inplace",
        "label": "struct BrevisRequest.Request",
        "members": [
          {
            "astId": 627,
            "contract": "contracts/core/BrevisRequest.sol:BrevisRequest",
            "label": "deadline",
            "offset": 0,
            "slot": "0",
            "type": "t_uint256"
          },
          {
            "astId": 629,
            "contract": "contracts/core/BrevisRequest.sol:BrevisRequest",
            "label": "fee",
            "offset": 0,
            "slot": "1",
            "type": "t_uint256"
          },
          {
            "astId": 631,
            "contract": "contracts/core/BrevisRequest.sol:BrevisRequest",
            "label": "refundee",
            "offset": 0,
            "slot": "2",
            "type": "t_address"
          },
          {
            "astId": 634,
            "contract": "contracts/core/BrevisRequest.sol:BrevisRequest",
            "label": "callback",
            "offset": 0,
            "slot": "3",
            "type": "t_contract(IBrevisApp)1285"
          },
          {
            "astId": 637,
            "contract": "contracts/core/BrevisRequest.sol:BrevisRequest",
            "label": "status",
            "offset": 20,
            "slot": "3",
            "type": "t_enum(RequestStatus)621"
          },
          {
            "astId": 640,
            "contract": "contracts/core/BrevisRequest.sol:BrevisRequest",
            "label": "option",
            "offset": 21,
            "slot": "3",
            "type": "t_enum(Option)625"
          }
        ],
        "numberOfBytes": "128"
      },
      "t_struct(RequestExt)982_storage": {
        "encoding": "inplace",
        "label": "struct BrevisRequest.RequestExt",
        "members": [
          {
            "astId": 976,
            "contract": "contracts/core/BrevisRequest.sol:BrevisRequest",
            "label": "canChallengeBefore",
            "offset": 0,
            "slot": "0",
            "type": "t_uint256"
          },
          {
            "astId": 979,
            "contract": "contracts/core/BrevisRequest.sol:BrevisRequest",
            "label": "askFor",
            "offset": 0,
            "slot": "1",
            "type": "t_enum(AskForType)974"
          },
          {
            "astId": 981,
            "contract": "contracts/core/BrevisRequest.sol:BrevisRequest",
            "label": "shouldRespondBefore",
            "offset": 0,
            "slot": "2",
            "type": "t_uint256"
          }
        ],
        "numberOfBytes": "96"
      },
      "t_uint256": {
        "encoding": "inplace",
        "label": "uint256",
        "numberOfBytes": "32"
      }
    }
  }
}